{
  "contractName": "Agreement",
  "abi": [
    {
      "constant": true,
      "inputs": [],
      "name": "numberOfPost",
      "outputs": [
        {
          "name": "",
          "type": "uint256"
        }
      ],
      "payable": false,
      "stateMutability": "view",
      "type": "function"
    },
    {
      "constant": true,
      "inputs": [],
      "name": "reach",
      "outputs": [
        {
          "name": "",
          "type": "string"
        }
      ],
      "payable": false,
      "stateMutability": "view",
      "type": "function"
    },
    {
      "constant": true,
      "inputs": [],
      "name": "client",
      "outputs": [
        {
          "name": "",
          "type": "string"
        }
      ],
      "payable": false,
      "stateMutability": "view",
      "type": "function"
    },
    {
      "constant": true,
      "inputs": [],
      "name": "brand",
      "outputs": [
        {
          "name": "",
          "type": "address"
        }
      ],
      "payable": false,
      "stateMutability": "view",
      "type": "function"
    },
    {
      "constant": true,
      "inputs": [],
      "name": "expiration",
      "outputs": [
        {
          "name": "",
          "type": "uint256"
        }
      ],
      "payable": false,
      "stateMutability": "view",
      "type": "function"
    },
    {
      "constant": true,
      "inputs": [],
      "name": "title",
      "outputs": [
        {
          "name": "",
          "type": "string"
        }
      ],
      "payable": false,
      "stateMutability": "view",
      "type": "function"
    },
    {
      "constant": true,
      "inputs": [],
      "name": "description",
      "outputs": [
        {
          "name": "",
          "type": "string"
        }
      ],
      "payable": false,
      "stateMutability": "view",
      "type": "function"
    },
    {
      "constant": true,
      "inputs": [],
      "name": "startTime",
      "outputs": [
        {
          "name": "",
          "type": "uint256"
        }
      ],
      "payable": false,
      "stateMutability": "view",
      "type": "function"
    },
    {
      "constant": true,
      "inputs": [],
      "name": "content",
      "outputs": [
        {
          "name": "locked",
          "type": "bool"
        }
      ],
      "payable": false,
      "stateMutability": "view",
      "type": "function"
    },
    {
      "constant": true,
      "inputs": [
        {
          "name": "_contentID",
          "type": "bytes32"
        }
      ],
      "name": "getContentByID",
      "outputs": [
        {
          "name": "id",
          "type": "bytes32"
        },
        {
          "name": "addedOn",
          "type": "uint256"
        },
        {
          "name": "name",
          "type": "string"
        },
        {
          "name": "description",
          "type": "string"
        },
        {
          "name": "_type",
          "type": "string"
        },
        {
          "name": "contentID",
          "type": "string"
        },
        {
          "name": "userID",
          "type": "string"
        },
        {
          "name": "approved",
          "type": "bool"
        },
        {
          "name": "requestEdit",
          "type": "bool"
        },
        {
          "name": "requestResubmission",
          "type": "bool"
        }
      ],
      "payable": false,
      "stateMutability": "view",
      "type": "function"
    },
    {
      "constant": true,
      "inputs": [
        {
          "name": "",
          "type": "bytes32"
        }
      ],
      "name": "creators",
      "outputs": [
        {
          "name": "",
          "type": "bool"
        }
      ],
      "payable": false,
      "stateMutability": "view",
      "type": "function"
    },
    {
      "constant": true,
      "inputs": [],
      "name": "createdOn",
      "outputs": [
        {
          "name": "",
          "type": "uint256"
        }
      ],
      "payable": false,
      "stateMutability": "view",
      "type": "function"
    },
    {
      "constant": true,
      "inputs": [
        {
          "name": "",
          "type": "bytes32"
        }
      ],
      "name": "payouts",
      "outputs": [
        {
          "name": "id",
          "type": "bytes32"
        },
        {
          "name": "client",
          "type": "string"
        },
        {
          "name": "contentID",
          "type": "string"
        },
        {
          "name": "isPayed",
          "type": "bool"
        }
      ],
      "payable": false,
      "stateMutability": "view",
      "type": "function"
    },
    {
      "constant": true,
      "inputs": [],
      "name": "locked",
      "outputs": [
        {
          "name": "",
          "type": "bool"
        }
      ],
      "payable": false,
      "stateMutability": "view",
      "type": "function"
    },
    {
      "constant": false,
      "inputs": [
        {
          "name": "_id",
          "type": "bytes32"
        }
      ],
      "name": "payout",
      "outputs": [
        {
          "name": "",
          "type": "bool"
        }
      ],
      "payable": false,
      "stateMutability": "nonpayable",
      "type": "function"
    },
    {
      "constant": true,
      "inputs": [],
      "name": "budget",
      "outputs": [
        {
          "name": "",
          "type": "uint256"
        }
      ],
      "payable": false,
      "stateMutability": "view",
      "type": "function"
    },
    {
      "constant": true,
      "inputs": [],
      "name": "image",
      "outputs": [
        {
          "name": "",
          "type": "string"
        }
      ],
      "payable": false,
      "stateMutability": "view",
      "type": "function"
    },
    {
      "inputs": [
        {
          "name": "_title",
          "type": "string"
        },
        {
          "name": "_description",
          "type": "string"
        },
        {
          "name": "_client",
          "type": "string"
        },
        {
          "name": "_budget",
          "type": "uint256"
        },
        {
          "name": "_reach",
          "type": "string"
        },
        {
          "name": "_image",
          "type": "string"
        },
        {
          "name": "_expiration",
          "type": "uint256"
        },
        {
          "name": "_startTime",
          "type": "uint256"
        },
        {
          "name": "_numberOfPost",
          "type": "uint256"
        }
      ],
      "payable": false,
      "stateMutability": "nonpayable",
      "type": "constructor"
    },
    {
      "constant": false,
      "inputs": [
        {
          "name": "_creator",
          "type": "bytes32"
        },
        {
          "name": "_name",
          "type": "string"
        },
        {
          "name": "_description",
          "type": "string"
        },
        {
          "name": "_type",
          "type": "string"
        },
        {
          "name": "_contentID",
          "type": "string"
        },
        {
          "name": "_userID",
          "type": "string"
        }
      ],
      "name": "submitContent",
      "outputs": [
        {
          "name": "",
          "type": "bool"
        }
      ],
      "payable": false,
      "stateMutability": "nonpayable",
      "type": "function"
    },
    {
      "constant": false,
      "inputs": [
        {
          "name": "_contentID",
          "type": "bytes32"
        }
      ],
      "name": "approveContent",
      "outputs": [
        {
          "name": "",
          "type": "bool"
        }
      ],
      "payable": false,
      "stateMutability": "nonpayable",
      "type": "function"
    },
    {
      "constant": false,
      "inputs": [
        {
          "name": "_contentID",
          "type": "bytes32"
        }
      ],
      "name": "disApproveContent",
      "outputs": [
        {
          "name": "",
          "type": "bool"
        }
      ],
      "payable": false,
      "stateMutability": "nonpayable",
      "type": "function"
    },
    {
      "constant": false,
      "inputs": [
        {
          "name": "_contentID",
          "type": "bytes32"
        }
      ],
      "name": "requestEdit",
      "outputs": [
        {
          "name": "",
          "type": "bool"
        }
      ],
      "payable": false,
      "stateMutability": "nonpayable",
      "type": "function"
    },
    {
      "constant": false,
      "inputs": [
        {
          "name": "_contentID",
          "type": "bytes32"
        }
      ],
      "name": "requestResubmission",
      "outputs": [
        {
          "name": "",
          "type": "bool"
        }
      ],
      "payable": false,
      "stateMutability": "nonpayable",
      "type": "function"
    },
    {
      "constant": false,
      "inputs": [
        {
          "name": "_expiration",
          "type": "uint256"
        }
      ],
      "name": "extendExpiration",
      "outputs": [
        {
          "name": "",
          "type": "bool"
        }
      ],
      "payable": false,
      "stateMutability": "nonpayable",
      "type": "function"
    },
    {
      "constant": false,
      "inputs": [
        {
          "name": "_creator",
          "type": "bytes32"
        }
      ],
      "name": "addCreator",
      "outputs": [
        {
          "name": "",
          "type": "bool"
        }
      ],
      "payable": false,
      "stateMutability": "nonpayable",
      "type": "function"
    },
    {
      "constant": true,
      "inputs": [
        {
          "name": "_creator",
          "type": "bytes32"
        }
      ],
      "name": "getCreator",
      "outputs": [
        {
          "name": "",
          "type": "bool"
        }
      ],
      "payable": false,
      "stateMutability": "view",
      "type": "function"
    }
  ],
  "bytecode": "0x60806040523480156200001157600080fd5b5060405162002df438038062002df483398101806040528101908080518201929190602001805182019291906020018051820192919060200180519060200190929190805182019291906020018051820192919060200180519060200190929190805190602001909291908051906020019092919050505033600960006101000a81548173ffffffffffffffffffffffffffffffffffffffff021916908373ffffffffffffffffffffffffffffffffffffffff16021790555083600f9080519060200190620000e292919062000172565b5088600b9080519060200190620000fb92919062000172565b5087600c90805190602001906200011492919062000172565b5086600d90805190602001906200012d92919062000172565b508560038190555084600e90805190602001906200014d92919062000172565b5082600781905550816008819055508060108190555050505050505050505062000221565b828054600181600116156101000203166002900490600052602060002090601f016020900481019282601f10620001b557805160ff1916838001178555620001e6565b82800160010185558215620001e6579182015b82811115620001e5578251825591602001919060010190620001c8565b5b509050620001f59190620001f9565b5090565b6200021e91905b808211156200021a57600081600090555060010162000200565b5090565b90565b612bc380620002316000396000f300608060405260043610610149576000357c0100000000000000000000000000000000000000000000000000000000900463ffffffff168063060a7ef11461014e5780630a114a70146101975780630cbfa010146101dc5780630faf111914610207578063109e94cf146102975780631b11006b146103275780632a6a7b6b146103705780632d9fff01146103b957806337171d34146104105780634665096d146105b75780634a79d50c146105e25780636b379fdf146106725780637284e416146106bb57806378e979251461074b5780638a4d5a671461077657806390de82ef146107a55780639ec21dc214610a365780639f2ce59414610a7f578063a5577a9914610aaa578063a56de97f14610af3578063aeddb90514610b3c578063cf30901214610c6c578063cfefb3d514610c9b578063ed01bf2914610ce4578063f3ccaac014610d0f575b600080fd5b34801561015a57600080fd5b5061017d6004803603810190808035600019169060200190929190505050610d9f565b604051808215151515815260200191505060405180910390f35b3480156101a357600080fd5b506101c260048036038101908080359060200190929190505050610e2d565b604051808215151515815260200191505060405180910390f35b3480156101e857600080fd5b506101f1610eb7565b6040518082815260200191505060405180910390f35b34801561021357600080fd5b5061021c610ebd565b6040518080602001828103825283818151815260200191508051906020019080838360005b8381101561025c578082015181840152602081019050610241565b50505050905090810190601f1680156102895780820380516001836020036101000a031916815260200191505b509250505060405180910390f35b3480156102a357600080fd5b506102ac610f5b565b6040518080602001828103825283818151815260200191508051906020019080838360005b838110156102ec5780820151818401526020810190506102d1565b50505050905090810190601f1680156103195780820380516001836020036101000a031916815260200191505b509250505060405180910390f35b34801561033357600080fd5b506103566004803603810190808035600019169060200190929190505050610ff9565b604051808215151515815260200191505060405180910390f35b34801561037c57600080fd5b5061039f60048036038101908080356000191690602001909291905050506110b8565b604051808215151515815260200191505060405180910390f35b3480156103c557600080fd5b506103ce6115c5565b604051808273ffffffffffffffffffffffffffffffffffffffff1673ffffffffffffffffffffffffffffffffffffffff16815260200191505060405180910390f35b34801561041c57600080fd5b5061059d6004803603810190808035600019169060200190929190803590602001908201803590602001908080601f0160208091040260200160405190810160405280939291908181526020018383808284378201915050505050509192919290803590602001908201803590602001908080601f0160208091040260200160405190810160405280939291908181526020018383808284378201915050505050509192919290803590602001908201803590602001908080601f0160208091040260200160405190810160405280939291908181526020018383808284378201915050505050509192919290803590602001908201803590602001908080601f0160208091040260200160405190810160405280939291908181526020018383808284378201915050505050509192919290803590602001908201803590602001908080601f01602080910402602001604051908101604052809392919081815260200183838082843782019150505050505091929192905050506115eb565b604051808215151515815260200191505060405180910390f35b3480156105c357600080fd5b506105cc611965565b6040518082815260200191505060405180910390f35b3480156105ee57600080fd5b506105f761196b565b6040518080602001828103825283818151815260200191508051906020019080838360005b8381101561063757808201518184015260208101905061061c565b50505050905090810190601f1680156106645780820380516001836020036101000a031916815260200191505b509250505060405180910390f35b34801561067e57600080fd5b506106a16004803603810190808035600019169060200190929190505050611a09565b604051808215151515815260200191505060405180910390f35b3480156106c757600080fd5b506106d0611a85565b6040518080602001828103825283818151815260200191508051906020019080838360005b838110156107105780820151818401526020810190506106f5565b50505050905090810190601f16801561073d5780820380516001836020036101000a031916815260200191505b509250505060405180910390f35b34801561075757600080fd5b50610760611b23565b6040518082815260200191505060405180910390f35b34801561078257600080fd5b5061078b611b29565b604051808215151515815260200191505060405180910390f35b3480156107b157600080fd5b506107d46004803603810190808035600019169060200190929190505050611b42565b604051808b600019166000191681526020018a8152602001806020018060200180602001806020018060200189151515158152602001881515151581526020018715151515815260200186810386528e818151815260200191508051906020019080838360005b8381101561085657808201518184015260208101905061083b565b50505050905090810190601f1680156108835780820380516001836020036101000a031916815260200191505b5086810385528d818151815260200191508051906020019080838360005b838110156108bc5780820151818401526020810190506108a1565b50505050905090810190601f1680156108e95780820380516001836020036101000a031916815260200191505b5086810384528c818151815260200191508051906020019080838360005b83811015610922578082015181840152602081019050610907565b50505050905090810190601f16801561094f5780820380516001836020036101000a031916815260200191505b5086810383528b818151815260200191508051906020019080838360005b8381101561098857808201518184015260208101905061096d565b50505050905090810190601f1680156109b55780820380516001836020036101000a031916815260200191505b5086810382528a818151815260200191508051906020019080838360005b838110156109ee5780820151818401526020810190506109d3565b50505050905090810190601f168015610a1b5780820380516001836020036101000a031916815260200191505b509f5050505050505050505050505050505060405180910390f35b348015610a4257600080fd5b50610a656004803603810190808035600019169060200190929190505050612032565b604051808215151515815260200191505060405180910390f35b348015610a8b57600080fd5b50610a94612052565b6040518082815260200191505060405180910390f35b348015610ab657600080fd5b50610ad96004803603810190808035600019169060200190929190505050612058565b604051808215151515815260200191505060405180910390f35b348015610aff57600080fd5b50610b2260048036038101908080356000191690602001909291905050506120f3565b604051808215151515815260200191505060405180910390f35b348015610b4857600080fd5b50610b6b600480360381019080803560001916906020019092919050505061216f565b604051808560001916600019168152602001806020018060200184151515158152602001838103835286818151815260200191508051906020019080838360005b83811015610bc7578082015181840152602081019050610bac565b50505050905090810190601f168015610bf45780820380516001836020036101000a031916815260200191505b50838103825285818151815260200191508051906020019080838360005b83811015610c2d578082015181840152602081019050610c12565b50505050905090810190601f168015610c5a5780820380516001836020036101000a031916815260200191505b50965050505050505060405180910390f35b348015610c7857600080fd5b50610c816122dc565b604051808215151515815260200191505060405180910390f35b348015610ca757600080fd5b50610cca60048036038101908080356000191690602001909291905050506122ef565b604051808215151515815260200191505060405180910390f35b348015610cf057600080fd5b50610cf9612331565b6040518082815260200191505060405180910390f35b348015610d1b57600080fd5b50610d24612337565b6040518080602001828103825283818151815260200191508051906020019080838360005b83811015610d64578082015181840152602081019050610d49565b50505050905090810190601f168015610d915780820380516001836020036101000a031916815260200191505b509250505060405180910390f35b6000600960009054906101000a900473ffffffffffffffffffffffffffffffffffffffff1673ffffffffffffffffffffffffffffffffffffffff163373ffffffffffffffffffffffffffffffffffffffff16141515610dfd57600080fd5b600a6000836000191660001916815260200190815260200160002060009054906101000a900460ff169050919050565b6000600960009054906101000a900473ffffffffffffffffffffffffffffffffffffffff1673ffffffffffffffffffffffffffffffffffffffff163373ffffffffffffffffffffffffffffffffffffffff16141515610e8b57600080fd5b60075482118015610e9c5750428210155b1515610ea757600080fd5b8160078190555060019050919050565b60105481565b600e8054600181600116156101000203166002900480601f016020809104026020016040519081016040528092919081815260200182805460018160011615610100020316600290048015610f535780601f10610f2857610100808354040283529160200191610f53565b820191906000526020600020905b815481529060010190602001808311610f3657829003601f168201915b505050505081565b600d8054600181600116156101000203166002900480601f016020809104026020016040519081016040528092919081815260200182805460018160011615610100020316600290048015610ff15780601f10610fc657610100808354040283529160200191610ff1565b820191906000526020600020905b815481529060010190602001808311610fd457829003601f168201915b505050505081565b6000600960009054906101000a900473ffffffffffffffffffffffffffffffffffffffff1673ffffffffffffffffffffffffffffffffffffffff163373ffffffffffffffffffffffffffffffffffffffff1614151561105757600080fd5b61106b8260006123d590919063ffffffff16565b50602060405190810160405280600081525060046000846000191660001916815260200190815260200160002060010190805190602001906110ae929190612a15565b5060019050919050565b60006110c2612a95565b600960009054906101000a900473ffffffffffffffffffffffffffffffffffffffff1673ffffffffffffffffffffffffffffffffffffffff163373ffffffffffffffffffffffffffffffffffffffff1614151561111e57600080fd5b61113283600061241990919063ffffffff16565b50600073__ContentUtils__________________________632bbf3d6b9091856040518363ffffffff167c01000000000000000000000000000000000000000000000000000000000281526004018083815260200182600019166000191681526020019250505060006040518083038186803b1580156111b157600080fd5b505af41580156111c5573d6000803e3d6000fd5b505050506040513d6000823e3d601f19601f8201168201806040525060208110156111ef57600080fd5b8101908080519060200190929190505050610140604051908101604052908160008201546000191660001916815260200160018201548152602001600282018054600181600116156101000203166002900480601f0160208091040260200160405190810160405280929190818152602001828054600181600116156101000203166002900480156112c25780601f10611297576101008083540402835291602001916112c2565b820191906000526020600020905b8154815290600101906020018083116112a557829003601f168201915b50505050508152602001600382018054600181600116156101000203166002900480601f0160208091040260200160405190810160405280929190818152602001828054600181600116156101000203166002900480156113645780601f1061133957610100808354040283529160200191611364565b820191906000526020600020905b81548152906001019060200180831161134757829003601f168201915b50505050508152602001600482018054600181600116156101000203166002900480601f0160208091040260200160405190810160405280929190818152602001828054600181600116156101000203166002900480156114065780601f106113db57610100808354040283529160200191611406565b820191906000526020600020905b8154815290600101906020018083116113e957829003601f168201915b50505050508152602001600582018054600181600116156101000203166002900480601f0160208091040260200160405190810160405280929190818152602001828054600181600116156101000203166002900480156114a85780601f1061147d576101008083540402835291602001916114a8565b820191906000526020600020905b81548152906001019060200180831161148b57829003601f168201915b50505050508152602001600682018054600181600116156101000203166002900480601f01602080910402602001604051908101604052809291908181526020018280546001816001161561010002031660029004801561154a5780601f1061151f5761010080835404028352916020019161154a565b820191906000526020600020905b81548152906001019060200180831161152d57829003601f168201915b505050505081526020016007820160009054906101000a900460ff161515151581526020016007820160019054906101000a900460ff161515151581526020016007820160029054906101000a900460ff16151515158152505090506115bd81600001518260c001518360a00151612823565b915050919050565b600960009054906101000a900473ffffffffffffffffffffffffffffffffffffffff1681565b6000600754421015156115fd57600080fd5b600960009054906101000a900473ffffffffffffffffffffffffffffffffffffffff1673ffffffffffffffffffffffffffffffffffffffff163373ffffffffffffffffffffffffffffffffffffffff1614151561165957600080fd5b86600a6000826000191660001916815260200190815260200160002060009054906101000a900460ff16151561168e57600080fd5b600073__ContentUtils__________________________6392974d2e909189898989896040518763ffffffff167c010000000000000000000000000000000000000000000000000000000002815260040180878152602001806020018060200180602001806020018060200186810386528b818151815260200191508051906020019080838360005b83811015611732578082015181840152602081019050611717565b50505050905090810190601f16801561175f5780820380516001836020036101000a031916815260200191505b5086810385528a818151815260200191508051906020019080838360005b8381101561179857808201518184015260208101905061177d565b50505050905090810190601f1680156117c55780820380516001836020036101000a031916815260200191505b50868103845289818151815260200191508051906020019080838360005b838110156117fe5780820151818401526020810190506117e3565b50505050905090810190601f16801561182b5780820380516001836020036101000a031916815260200191505b50868103835288818151815260200191508051906020019080838360005b83811015611864578082015181840152602081019050611849565b50505050905090810190601f1680156118915780820380516001836020036101000a031916815260200191505b50868103825287818151815260200191508051906020019080838360005b838110156118ca5780820151818401526020810190506118af565b50505050905090810190601f1680156118f75780820380516001836020036101000a031916815260200191505b509b50505050505050505050505060206040518083038186803b15801561191d57600080fd5b505af4158015611931573d6000803e3d6000fd5b505050506040513d602081101561194757600080fd5b81019080805190602001909291905050509150509695505050505050565b60075481565b600b8054600181600116156101000203166002900480601f016020809104026020016040519081016040528092919081815260200182805460018160011615610100020316600290048015611a015780601f106119d657610100808354040283529160200191611a01565b820191906000526020600020905b8154815290600101906020018083116119e457829003601f168201915b505050505081565b6000600960009054906101000a900473ffffffffffffffffffffffffffffffffffffffff1673ffffffffffffffffffffffffffffffffffffffff163373ffffffffffffffffffffffffffffffffffffffff16141515611a6757600080fd5b611a7b8260006128e190919063ffffffff16565b5060019050919050565b600c8054600181600116156101000203166002900480601f016020809104026020016040519081016040528092919081815260200182805460018160011615610100020316600290048015611b1b5780601f10611af057610100808354040283529160200191611b1b565b820191906000526020600020905b815481529060010190602001808311611afe57829003601f168201915b505050505081565b60085481565b60008060020160009054906101000a900460ff16905081565b60008060608060608060606000806000611b5a612a95565b600073__ContentUtils__________________________632bbf3d6b90918e6040518363ffffffff167c01000000000000000000000000000000000000000000000000000000000281526004018083815260200182600019166000191681526020019250505060006040518083038186803b158015611bd857600080fd5b505af4158015611bec573d6000803e3d6000fd5b505050506040513d6000823e3d601f19601f820116820180604052506020811015611c1657600080fd5b8101908080519060200190929190505050610140604051908101604052908160008201546000191660001916815260200160018201548152602001600282018054600181600116156101000203166002900480601f016020809104026020016040519081016040528092919081815260200182805460018160011615610100020316600290048015611ce95780601f10611cbe57610100808354040283529160200191611ce9565b820191906000526020600020905b815481529060010190602001808311611ccc57829003601f168201915b50505050508152602001600382018054600181600116156101000203166002900480601f016020809104026020016040519081016040528092919081815260200182805460018160011615610100020316600290048015611d8b5780601f10611d6057610100808354040283529160200191611d8b565b820191906000526020600020905b815481529060010190602001808311611d6e57829003601f168201915b50505050508152602001600482018054600181600116156101000203166002900480601f016020809104026020016040519081016040528092919081815260200182805460018160011615610100020316600290048015611e2d5780601f10611e0257610100808354040283529160200191611e2d565b820191906000526020600020905b815481529060010190602001808311611e1057829003601f168201915b50505050508152602001600582018054600181600116156101000203166002900480601f016020809104026020016040519081016040528092919081815260200182805460018160011615610100020316600290048015611ecf5780601f10611ea457610100808354040283529160200191611ecf565b820191906000526020600020905b815481529060010190602001808311611eb257829003601f168201915b50505050508152602001600682018054600181600116156101000203166002900480601f016020809104026020016040519081016040528092919081815260200182805460018160011615610100020316600290048015611f715780601f10611f4657610100808354040283529160200191611f71565b820191906000526020600020905b815481529060010190602001808311611f5457829003601f168201915b505050505081526020016007820160009054906101000a900460ff161515151581526020016007820160019054906101000a900460ff161515151581526020016007820160029054906101000a900460ff1615151515815250509050806000015181602001518260400151836060015184608001518560a001518660c001518760e001518861010001518961012001518797508696508595508494508393509a509a509a509a509a509a509a509a509a509a50509193959799509193959799565b600a6020528060005260406000206000915054906101000a900460ff1681565b60065481565b6000600960009054906101000a900473ffffffffffffffffffffffffffffffffffffffff1673ffffffffffffffffffffffffffffffffffffffff163373ffffffffffffffffffffffffffffffffffffffff161415156120b657600080fd5b6001600a6000846000191660001916815260200190815260200160002060006101000a81548160ff02191690831515021790555060019050919050565b6000600960009054906101000a900473ffffffffffffffffffffffffffffffffffffffff1673ffffffffffffffffffffffffffffffffffffffff163373ffffffffffffffffffffffffffffffffffffffff1614151561215157600080fd5b61216582600061295e90919063ffffffff16565b5060019050919050565b6004602052806000526040600020600091509050806000015490806001018054600181600116156101000203166002900480601f0160208091040260200160405190810160405280929190818152602001828054600181600116156101000203166002900480156122215780601f106121f657610100808354040283529160200191612221565b820191906000526020600020905b81548152906001019060200180831161220457829003601f168201915b505050505090806002018054600181600116156101000203166002900480601f0160208091040260200160405190810160405280929190818152602001828054600181600116156101000203166002900480156122bf5780601f10612294576101008083540402835291602001916122bf565b820191906000526020600020905b8154815290600101906020018083116122a257829003601f168201915b5050505050908060030160009054906101000a900460ff16905084565b600560009054906101000a900460ff1681565b6000600160046000846000191660001916815260200190815260200160002060030160006101000a81548160ff02191690831515021790555060019050919050565b60035481565b600f8054600181600116156101000203166002900480601f0160208091040260200160405190810160405280929190818152602001828054600181600116156101000203166002900480156123cd5780601f106123a2576101008083540402835291602001916123cd565b820191906000526020600020905b8154815290600101906020018083116123b057829003601f168201915b505050505081565b600080836000016000846000191660001916815260200190815260200160002060070160006101000a81548160ff0219169083151502179055506001905092915050565b612421612a95565b6001836000016000846000191660001916815260200190815260200160002060070160006101000a81548160ff0219169083151502179055508260000160008360001916600019168152602001908152602001600020610140604051908101604052908160008201546000191660001916815260200160018201548152602001600282018054600181600116156101000203166002900480601f0160208091040260200160405190810160405280929190818152602001828054600181600116156101000203166002900480156125395780601f1061250e57610100808354040283529160200191612539565b820191906000526020600020905b81548152906001019060200180831161251c57829003601f168201915b50505050508152602001600382018054600181600116156101000203166002900480601f0160208091040260200160405190810160405280929190818152602001828054600181600116156101000203166002900480156125db5780601f106125b0576101008083540402835291602001916125db565b820191906000526020600020905b8154815290600101906020018083116125be57829003601f168201915b50505050508152602001600482018054600181600116156101000203166002900480601f01602080910402602001604051908101604052809291908181526020018280546001816001161561010002031660029004801561267d5780601f106126525761010080835404028352916020019161267d565b820191906000526020600020905b81548152906001019060200180831161266057829003601f168201915b50505050508152602001600582018054600181600116156101000203166002900480601f01602080910402602001604051908101604052809291908181526020018280546001816001161561010002031660029004801561271f5780601f106126f45761010080835404028352916020019161271f565b820191906000526020600020905b81548152906001019060200180831161270257829003601f168201915b50505050508152602001600682018054600181600116156101000203166002900480601f0160208091040260200160405190810160405280929190818152602001828054600181600116156101000203166002900480156127c15780601f10612796576101008083540402835291602001916127c1565b820191906000526020600020905b8154815290600101906020018083116127a457829003601f168201915b505050505081526020016007820160009054906101000a900460ff161515151581526020016007820160019054906101000a900460ff161515151581526020016007820160029054906101000a900460ff161515151581525050905092915050565b60006080604051908101604052808560001916815260200184815260200183815260200160001515815250600460008660001916600019168152602001908152602001600020600082015181600001906000191690556020820151816001019080519060200190612895929190612af2565b5060408201518160020190805190602001906128b2929190612af2565b5060608201518160030160006101000a81548160ff021916908315150217905550905050600190509392505050565b600080836000016000846000191660001916815260200190815260200160002060070160016101000a81548160ff0219169083151502179055506001836000016000846000191660001916815260200190815260200160002060070160026101000a81548160ff0219169083151502179055506001905092915050565b60006001836000016000846000191660001916815260200190815260200160002060070160016101000a81548160ff0219169083151502179055506000836000016000846000191660001916815260200190815260200160002060070160026101000a81548160ff0219169083151502179055506000836000016000846000191660001916815260200190815260200160002060070160006101000a81548160ff0219169083151502179055506001905092915050565b828054600181600116156101000203166002900490600052602060002090601f016020900481019282601f10612a5657805160ff1916838001178555612a84565b82800160010185558215612a84579182015b82811115612a83578251825591602001919060010190612a68565b5b509050612a919190612b72565b5090565b61014060405190810160405280600080191681526020016000815260200160608152602001606081526020016060815260200160608152602001606081526020016000151581526020016000151581526020016000151581525090565b828054600181600116156101000203166002900490600052602060002090601f016020900481019282601f10612b3357805160ff1916838001178555612b61565b82800160010185558215612b61579182015b82811115612b60578251825591602001919060010190612b45565b5b509050612b6e9190612b72565b5090565b612b9491905b80821115612b90576000816000905550600101612b78565b5090565b905600a165627a7a723058204bbbdc0eb05c8ecf34a122a2864b07402a22af44b5e90194d3aab1232756b1580029",
  "source": "pragma solidity ^0.4.23;\n\nimport './Escrow.sol';\nimport './ContentUtils.sol';\n\ncontract Agreement is Escrow {\n    \n    bool public locked;\n\n\n    uint  public createdOn;\n    uint public expiration;\n    uint public startTime;\n    address public brand;\n    mapping (bytes32=>bool) public creators;\n\n    string public title;\n    string public description;\n    string public client;\n    string public reach;\n    string public image;\n    uint256 public numberOfPost;\n\n    constructor(\n        string _title,\n        string _description,\n        string _client,\n        uint256 _budget,\n        string _reach,\n        string _image,\n        uint _expiration,\n        uint _startTime,\n        uint256 _numberOfPost) public {\n        brand = msg.sender;\n        image = _image;\n        title = _title;\n        description = _description;\n        client = _client;\n        budget = _budget;\n        reach = _reach;\n        expiration = _expiration;\n        startTime = _startTime;\n        numberOfPost = _numberOfPost;\n    }\n\n    /// @notice only brand is authorized\n    modifier onlyBrand() {\n        require(msg.sender == brand);\n        _;\n    }\n\n    /// @notice only creators is authorized\n    modifier isInvited(bytes32 _creator) {\n        require(creators[_creator]);\n        _;\n    }\n\n    /// @notice deliverable fulfilled\n    // modifier fulfilled(bytes32 _id) {\n    //     require(content.isFulfilled(_id, creators, brand));\n    //     _;\n    // }\n\n    // approve contentID\n    /// @notice agreement expired, refunds remaining balance in escrow\n    modifier expired() {\n        require(block.timestamp > expiration);\n        _;\n    }\n\n    /// @notice agreement not expire\n    modifier notExpired() {\n        require(block.timestamp < expiration);\n        _;\n    }\n\n    /// @notice agreement not locked\n    modifier notLocked() {\n        require(!locked);\n        _;\n    }\n\n    /// @notice submit content to the agreement\n    function submitContent(\n        bytes32 _creator,\n        string _name, \n        string _description,\n        string _type,\n        string _contentID,\n        string _userID) notExpired onlyBrand  isInvited(_creator) \n        public returns(bool) {\n            return content.put(_name, _description, _type, _contentID, _userID);\n    }\n\n    /// @notice complete deliverable by making reward amount claimable, GENERATE PAYOUT\n    function approveContent(bytes32 _contentID) onlyBrand public returns(bool) {\n        content.approve(_contentID);\n        ContentUtils.Content memory _content = content.getContentByID(_contentID);\n        return newPayout(_content.id, _content.userID, _content.contentID);\n    }\n\n    /// @notice complete deliverable by making reward amount claimable, GENERATE PAYOUT\n    function disApproveContent(bytes32 _contentID) onlyBrand public returns(bool) {\n        content.disApprove(_contentID);\n        payouts[_contentID].client = '';\n        return true;\n    }\n\n    /// @notice complete deliverable by making reward amount claimable, GENERATE PAYOUT\n    function requestEdit(bytes32 _contentID) onlyBrand public returns(bool) {\n        content.requestEdit(_contentID);\n        return true;\n    }\n\n    function requestResubmission(bytes32 _contentID) onlyBrand public returns(bool) {\n        content.requestResubmission(_contentID);\n        return true;\n    }\n\n    function extendExpiration(uint _expiration) onlyBrand public returns (bool) {\n        require(_expiration > expiration && _expiration >= block.timestamp);\n        expiration = _expiration;\n        return true;\n    }\n\n    function addCreator(bytes32 _creator) onlyBrand public returns (bool) {\n        creators[_creator] = true;\n        return true;\n    }\n\n    function getCreator(bytes32 _creator) onlyBrand view returns (bool) {\n        return creators[_creator];\n    }\n    // function _fulfill(bytes32 _id) private returns (bool) {\n    //     bool _fulfilled = content.fulfill(_id, creators, brand);\n    //     if(_fulfilled) {\n    //         return completeDeliverable(_id, creators, brand);\n    //     }\n\n    //     return false;\n    // }\n\n    // function fulfillDeliverable(bytes32 _id) notExpired isInvited public returns (bool) {\n    //     return _fulfill(_id);\n    // }\n\n    // function approveDeliverable(bytes32 _id) onlyBrand public returns (bool) {\n    //     return _fulfill(_id);\n    // }\n    \n    // function claim(bytes32 _id) external isInvited {\n    //     claimableRewards[_id] = 0;\n    // }\n\n    // function lock() onlyBrand public {\n    //     content.locked == true;\n    //     locked = true;\n    //     startTime = block.timestamp;\n    // }\n\n    \n\n    // function destroy() onlyBrand expired public {\n    //     selfdestruct(msg.sender);\n    // }\n}\n",
  "sourcePath": "/Users/kc1116/Desktop/credit-coin/credit-coin-contracts/contracts/Agreement.sol",
  "compiler": {
    "name": "solc",
    "version": "0.4.24+commit.e67f0147.Emscripten.clang"
  },
  "schemaVersion": "2.0.0",
  "updatedAt": "2018-07-22T22:27:05.286Z"
}