{
  "contractName": "Agreement",
  "abi": [
    {
      "constant": true,
      "inputs": [],
      "name": "creator",
      "outputs": [
        {
          "name": "",
          "type": "address"
        }
      ],
      "payable": false,
      "stateMutability": "view",
      "type": "function"
    },
    {
      "constant": true,
      "inputs": [
        {
          "name": "",
          "type": "bytes32"
        }
      ],
      "name": "claimableRewards",
      "outputs": [
        {
          "name": "",
          "type": "uint256"
        }
      ],
      "payable": false,
      "stateMutability": "view",
      "type": "function"
    },
    {
      "constant": false,
      "inputs": [
        {
          "name": "_id",
          "type": "bytes32"
        }
      ],
      "name": "getClaimableRewards",
      "outputs": [
        {
          "name": "",
          "type": "uint256"
        }
      ],
      "payable": false,
      "stateMutability": "nonpayable",
      "type": "function"
    },
    {
      "constant": true,
      "inputs": [],
      "name": "brand",
      "outputs": [
        {
          "name": "",
          "type": "address"
        }
      ],
      "payable": false,
      "stateMutability": "view",
      "type": "function"
    },
    {
      "constant": true,
      "inputs": [
        {
          "name": "_name",
          "type": "string"
        }
      ],
      "name": "currentFulfillment",
      "outputs": [
        {
          "name": "fulfillment",
          "type": "bool"
        }
      ],
      "payable": false,
      "stateMutability": "view",
      "type": "function"
    },
    {
      "constant": true,
      "inputs": [],
      "name": "expiration",
      "outputs": [
        {
          "name": "",
          "type": "uint256"
        }
      ],
      "payable": false,
      "stateMutability": "view",
      "type": "function"
    },
    {
      "constant": true,
      "inputs": [],
      "name": "startTime",
      "outputs": [
        {
          "name": "",
          "type": "uint256"
        }
      ],
      "payable": false,
      "stateMutability": "view",
      "type": "function"
    },
    {
      "constant": true,
      "inputs": [],
      "name": "content",
      "outputs": [
        {
          "name": "locked",
          "type": "bool"
        }
      ],
      "payable": false,
      "stateMutability": "view",
      "type": "function"
    },
    {
      "constant": true,
      "inputs": [],
      "name": "createdOn",
      "outputs": [
        {
          "name": "",
          "type": "uint256"
        }
      ],
      "payable": false,
      "stateMutability": "view",
      "type": "function"
    },
    {
      "constant": true,
      "inputs": [],
      "name": "claimable",
      "outputs": [
        {
          "name": "",
          "type": "uint256"
        }
      ],
      "payable": false,
      "stateMutability": "view",
      "type": "function"
    },
    {
      "constant": true,
      "inputs": [
        {
          "name": "_name",
          "type": "string"
        }
      ],
      "name": "getContentByName",
      "outputs": [
        {
          "name": "name",
          "type": "string"
        },
        {
          "name": "description",
          "type": "string"
        },
        {
          "name": "reward",
          "type": "uint256"
        },
        {
          "name": "addedOn",
          "type": "uint256"
        }
      ],
      "payable": false,
      "stateMutability": "view",
      "type": "function"
    },
    {
      "constant": true,
      "inputs": [],
      "name": "currentBalance",
      "outputs": [
        {
          "name": "",
          "type": "uint256"
        }
      ],
      "payable": false,
      "stateMutability": "view",
      "type": "function"
    },
    {
      "constant": true,
      "inputs": [],
      "name": "locked",
      "outputs": [
        {
          "name": "",
          "type": "bool"
        }
      ],
      "payable": false,
      "stateMutability": "view",
      "type": "function"
    },
    {
      "inputs": [
        {
          "name": "_creator",
          "type": "address"
        },
        {
          "name": "_expiration",
          "type": "uint256"
        },
        {
          "name": "_token",
          "type": "address"
        }
      ],
      "payable": false,
      "stateMutability": "nonpayable",
      "type": "constructor"
    },
    {
      "constant": false,
      "inputs": [
        {
          "name": "_name",
          "type": "string"
        },
        {
          "name": "_description",
          "type": "string"
        },
        {
          "name": "_reward",
          "type": "uint256"
        }
      ],
      "name": "addContent",
      "outputs": [
        {
          "name": "_success",
          "type": "bool"
        }
      ],
      "payable": false,
      "stateMutability": "nonpayable",
      "type": "function"
    },
    {
      "constant": false,
      "inputs": [
        {
          "name": "_id",
          "type": "bytes32"
        }
      ],
      "name": "fulfillDeliverable",
      "outputs": [
        {
          "name": "",
          "type": "bool"
        }
      ],
      "payable": false,
      "stateMutability": "nonpayable",
      "type": "function"
    },
    {
      "constant": false,
      "inputs": [
        {
          "name": "_id",
          "type": "bytes32"
        }
      ],
      "name": "approveDeliverable",
      "outputs": [
        {
          "name": "",
          "type": "bool"
        }
      ],
      "payable": false,
      "stateMutability": "nonpayable",
      "type": "function"
    },
    {
      "constant": false,
      "inputs": [
        {
          "name": "_id",
          "type": "bytes32"
        }
      ],
      "name": "claim",
      "outputs": [],
      "payable": false,
      "stateMutability": "nonpayable",
      "type": "function"
    },
    {
      "constant": false,
      "inputs": [],
      "name": "lock",
      "outputs": [],
      "payable": false,
      "stateMutability": "nonpayable",
      "type": "function"
    },
    {
      "constant": false,
      "inputs": [
        {
          "name": "_expiration",
          "type": "uint256"
        }
      ],
      "name": "extendExpiration",
      "outputs": [
        {
          "name": "",
          "type": "bool"
        }
      ],
      "payable": false,
      "stateMutability": "nonpayable",
      "type": "function"
    },
    {
      "constant": false,
      "inputs": [],
      "name": "destroy",
      "outputs": [],
      "payable": false,
      "stateMutability": "nonpayable",
      "type": "function"
    },
    {
      "constant": false,
      "inputs": [],
      "name": "deposit",
      "outputs": [],
      "payable": true,
      "stateMutability": "payable",
      "type": "function"
    }
  ],
  "bytecode": "0x608060405230600360006101000a81548173ffffffffffffffffffffffffffffffffffffffff021916908373ffffffffffffffffffffffffffffffffffffffff1602179055506000600455600060055534801561005b57600080fd5b5060405160608061182083398101806040528101908080519060200190929190805190602001909291908051906020019092919050505033600b60006101000a81548173ffffffffffffffffffffffffffffffffffffffff021916908373ffffffffffffffffffffffffffffffffffffffff16021790555082600c60006101000a81548173ffffffffffffffffffffffffffffffffffffffff021916908373ffffffffffffffffffffffffffffffffffffffff160217905550816009819055505050506116f38061012d6000396000f30060806040526004361061011d576000357c0100000000000000000000000000000000000000000000000000000000900463ffffffff16806302d05d3f1461012257806305927006146101795780630a114a70146101be57806324e8b3ec146102035780632d9fff01146102485780633b72a1b61461029f578063418c7de1146102e85780634665096d14610369578063700971061461039457806378e979251461046557806383197ef0146104905780638a4d5a67146104a75780639f2ce594146104d6578063af38d75714610501578063bd66528a1461052c578063c3e0bbad1461055d578063ce845d1d146106b9578063cf309012146106e4578063d0e30db014610713578063d30fa9461461071d578063f83d08ba14610766575b600080fd5b34801561012e57600080fd5b5061013761077d565b604051808273ffffffffffffffffffffffffffffffffffffffff1673ffffffffffffffffffffffffffffffffffffffff16815260200191505060405180910390f35b34801561018557600080fd5b506101a860048036038101908080356000191690602001909291905050506107a3565b6040518082815260200191505060405180910390f35b3480156101ca57600080fd5b506101e9600480360381019080803590602001909291905050506107bb565b604051808215151515815260200191505060405180910390f35b34801561020f57600080fd5b506102326004803603810190808035600019169060200190929190505050610845565b6040518082815260200191505060405180910390f35b34801561025457600080fd5b5061025d61086a565b604051808273ffffffffffffffffffffffffffffffffffffffff1673ffffffffffffffffffffffffffffffffffffffff16815260200191505060405180910390f35b3480156102ab57600080fd5b506102ce6004803603810190808035600019169060200190929190505050610890565b604051808215151515815260200191505060405180910390f35b3480156102f457600080fd5b5061034f600480360381019080803590602001908201803590602001908080601f01602080910402602001604051908101604052809392919081815260200183838082843782019150505050505091929192905050506108fe565b604051808215151515815260200191505060405180910390f35b34801561037557600080fd5b5061037e610aa1565b6040518082815260200191505060405180910390f35b3480156103a057600080fd5b5061044b600480360381019080803590602001908201803590602001908080601f0160208091040260200160405190810160405280939291908181526020018383808284378201915050505050509192919290803590602001908201803590602001908080601f016020809104026020016040519081016040528093929190818152602001838380828437820191505050505050919291929080359060200190929190505050610aa7565b604051808215151515815260200191505060405180910390f35b34801561047157600080fd5b5061047a610cd7565b6040518082815260200191505060405180910390f35b34801561049c57600080fd5b506104a5610cdd565b005b3480156104b357600080fd5b506104bc610d62565b604051808215151515815260200191505060405180910390f35b3480156104e257600080fd5b506104eb610d7b565b6040518082815260200191505060405180910390f35b34801561050d57600080fd5b50610516610d81565b6040518082815260200191505060405180910390f35b34801561053857600080fd5b5061055b6004803603810190808035600019169060200190929190505050610d87565b005b34801561056957600080fd5b506105c4600480360381019080803590602001908201803590602001908080601f0160208091040260200160405190810160405280939291908181526020018383808284378201915050505050509192919290505050610e07565b604051808060200180602001858152602001848152602001838103835287818151815260200191508051906020019080838360005b838110156106145780820151818401526020810190506105f9565b50505050905090810190601f1680156106415780820380516001836020036101000a031916815260200191505b50838103825286818151815260200191508051906020019080838360005b8381101561067a57808201518184015260208101905061065f565b50505050905090810190601f1680156106a75780820380516001836020036101000a031916815260200191505b50965050505050505060405180910390f35b3480156106c557600080fd5b506106ce6110e9565b6040518082815260200191505060405180910390f35b3480156106f057600080fd5b506106f96110ef565b604051808215151515815260200191505060405180910390f35b61071b611102565b005b34801561072957600080fd5b5061074c6004803603810190808035600019169060200190929190505050611104565b604051808215151515815260200191505060405180910390f35b34801561077257600080fd5b5061077b611182565b005b600c60009054906101000a900473ffffffffffffffffffffffffffffffffffffffff1681565b60066020528060005260406000206000915090505481565b6000600b60009054906101000a900473ffffffffffffffffffffffffffffffffffffffff1673ffffffffffffffffffffffffffffffffffffffff163373ffffffffffffffffffffffffffffffffffffffff1614151561081957600080fd5b6009548211801561082a5750428210155b151561083557600080fd5b8160098190555060019050919050565b6000600660008360001916600019168152602001908152602001600020549050919050565b600b60009054906101000a900473ffffffffffffffffffffffffffffffffffffffff1681565b6000600b60009054906101000a900473ffffffffffffffffffffffffffffffffffffffff1673ffffffffffffffffffffffffffffffffffffffff163373ffffffffffffffffffffffffffffffffffffffff161415156108ee57600080fd5b6108f782611218565b9050919050565b60008060008073__ContentUtils__________________________6351d7b89a9091866040518363ffffffff167c01000000000000000000000000000000000000000000000000000000000281526004018083815260200180602001828103825283818151815260200191508051906020019080838360005b83811015610992578082015181840152602081019050610977565b50505050905090810190601f1680156109bf5780820380516001836020036101000a031916815260200191505b50935050505060006040518083038186803b1580156109dd57600080fd5b505af41580156109f1573d6000803e3d6000fd5b505050506040513d6000823e3d601f19601f820116820180604052506040811015610a1b57600080fd5b810190808051906020019092919080519060200190929190505050915091508015610a99578160040160010160003373ffffffffffffffffffffffffffffffffffffffff1673ffffffffffffffffffffffffffffffffffffffff16815260200190815260200160002060009054906101000a900460ff169250610a9a565b5b5050919050565b60095481565b6000600760009054906101000a900460ff16151515610ac557600080fd5b600b60009054906101000a900473ffffffffffffffffffffffffffffffffffffffff1673ffffffffffffffffffffffffffffffffffffffff163373ffffffffffffffffffffffffffffffffffffffff16141515610b2157600080fd5b81600081118015610b375750610b36816113e9565b5b1515610b4257600080fd5b600073__ContentUtils__________________________6377fc455990918787876040518563ffffffff167c0100000000000000000000000000000000000000000000000000000000028152600401808581526020018060200180602001848152602001838103835286818151815260200191508051906020019080838360005b83811015610bde578082015181840152602081019050610bc3565b50505050905090810190601f168015610c0b5780820380516001836020036101000a031916815260200191505b50838103825285818151815260200191508051906020019080838360005b83811015610c44578082015181840152602081019050610c29565b50505050905090810190601f168015610c715780820380516001836020036101000a031916815260200191505b50965050505050505060206040518083038186803b158015610c9257600080fd5b505af4158015610ca6573d6000803e3d6000fd5b505050506040513d6020811015610cbc57600080fd5b81019080805190602001909291905050509150509392505050565b600a5481565b600b60009054906101000a900473ffffffffffffffffffffffffffffffffffffffff1673ffffffffffffffffffffffffffffffffffffffff163373ffffffffffffffffffffffffffffffffffffffff16141515610d3957600080fd5b60095442111515610d4957600080fd5b3373ffffffffffffffffffffffffffffffffffffffff16ff5b60008060020160009054906101000a900460ff16905081565b60085481565b60045481565b600c60009054906101000a900473ffffffffffffffffffffffffffffffffffffffff1673ffffffffffffffffffffffffffffffffffffffff163373ffffffffffffffffffffffffffffffffffffffff16141515610de357600080fd5b60006006600083600019166000191681526020019081526020016000208190555050565b606080600080600080600073__ContentUtils__________________________6351d7b89a9091896040518363ffffffff167c01000000000000000000000000000000000000000000000000000000000281526004018083815260200180602001828103825283818151815260200191508051906020019080838360005b83811015610ea0578082015181840152602081019050610e85565b50505050905090810190601f168015610ecd5780820380516001836020036101000a031916815260200191505b50935050505060006040518083038186803b158015610eeb57600080fd5b505af4158015610eff573d6000803e3d6000fd5b505050506040513d6000823e3d601f19601f820116820180604052506040811015610f2957600080fd5b8101908080519060200190929190805190602001909291905050509150915080156110a857816001018260020183600401600001548460030154838054600181600116156101000203166002900480601f016020809104026020016040519081016040528092919081815260200182805460018160011615610100020316600290048015610ff85780601f10610fcd57610100808354040283529160200191610ff8565b820191906000526020600020905b815481529060010190602001808311610fdb57829003601f168201915b50505050509350828054600181600116156101000203166002900480601f0160208091040260200160405190810160405280929190818152602001828054600181600116156101000203166002900480156110945780601f1061106957610100808354040283529160200191611094565b820191906000526020600020905b81548152906001019060200180831161107757829003601f168201915b5050505050925095509550955095506110e0565b600080602060405190810160405280600081525091906020604051908101604052806000815250919081915080905095509550955095505b50509193509193565b60055481565b600760009054906101000a900460ff1681565b565b60006009544210151561111657600080fd5b600c60009054906101000a900473ffffffffffffffffffffffffffffffffffffffff1673ffffffffffffffffffffffffffffffffffffffff163373ffffffffffffffffffffffffffffffffffffffff1614151561117257600080fd5b61117b82611218565b9050919050565b600b60009054906101000a900473ffffffffffffffffffffffffffffffffffffffff1673ffffffffffffffffffffffffffffffffffffffff163373ffffffffffffffffffffffffffffffffffffffff161415156111de57600080fd5b60011515600060020160009054906101000a905050506001600760006101000a81548160ff02191690831515021790555042600a81905550565b600080600073__ContentUtils__________________________635e465cc6909185600c60009054906101000a900473ffffffffffffffffffffffffffffffffffffffff16600b60009054906101000a900473ffffffffffffffffffffffffffffffffffffffff166040518563ffffffff167c01000000000000000000000000000000000000000000000000000000000281526004018085815260200184600019166000191681526020018373ffffffffffffffffffffffffffffffffffffffff1673ffffffffffffffffffffffffffffffffffffffff1681526020018273ffffffffffffffffffffffffffffffffffffffff1673ffffffffffffffffffffffffffffffffffffffff16815260200194505050505060206040518083038186803b15801561134557600080fd5b505af4158015611359573d6000803e3d6000fd5b505050506040513d602081101561136f57600080fd5b8101908080519060200190929190505050905080156113de576113d783600c60009054906101000a900473ffffffffffffffffffffffffffffffffffffffff16600b60009054906101000a900473ffffffffffffffffffffffffffffffffffffffff1661140f565b91506113e3565b600091505b50919050565b60006114008260055461161c90919063ffffffff16565b60058190555060019050919050565b60008073__ContentUtils__________________________63c37a5a5e90918686866040518563ffffffff167c01000000000000000000000000000000000000000000000000000000000281526004018085815260200184600019166000191681526020018373ffffffffffffffffffffffffffffffffffffffff1673ffffffffffffffffffffffffffffffffffffffff1681526020018273ffffffffffffffffffffffffffffffffffffffff1673ffffffffffffffffffffffffffffffffffffffff16815260200194505050505060206040518083038186803b1580156114f657600080fd5b505af415801561150a573d6000803e3d6000fd5b505050506040513d602081101561152057600080fd5b8101908080519060200190929190505050151561153c57600080fd5b61155084600061163890919063ffffffff16565b5061161384600073__ContentUtils__________________________6385e2fffe9091886040518363ffffffff167c01000000000000000000000000000000000000000000000000000000000281526004018083815260200182600019166000191681526020019250505060206040518083038186803b1580156115d357600080fd5b505af41580156115e7573d6000803e3d6000fd5b505050506040513d60208110156115fd57600080fd5b8101908080519060200190929190505050611680565b90509392505050565b6000818301905082811015151561162f57fe5b80905092915050565b60006001836000016000846000191660001916815260200190815260200160002060040160020160006101000a81548160ff0219169083151502179055506001905092915050565b60006116978260045461161c90919063ffffffff16565b600481905550816006600085600019166000191681526020019081526020016000208190555060019050929150505600a165627a7a72305820edc8da2deedae3b708ed127fb631a6ae4a23dcde4f0d26f192329814a42638fa0029",
  "source": "pragma solidity ^0.4.23;\n\nimport './Escrow.sol';\nimport './ContentUtils.sol';\n\ncontract Agreement is Escrow {\n    \n    bool public locked;\n    uint  public createdOn;\n    uint public expiration;\n    uint public startTime;\n    address public brand;\n    address public creator;\n    \n    constructor(address _creator, uint _expiration, address _token) public {\n        brand = msg.sender;\n        creator = _creator;\n        expiration = _expiration;\n    }\n\n    /// @notice only brand is authorized\n    modifier onlyBrand() {\n        require(msg.sender == brand);\n        _;\n    }\n\n    /// @notice only creator is authorized\n    modifier onlyCreator() {\n        require(msg.sender == creator);\n        _;\n    }\n\n    /// @notice deliverable fulfilled\n    modifier fulfilled(bytes32 _id) {\n        require(content.isFulfilled(_id, creator, brand));\n        _;\n    }\n\n    /// @notice agreement expired, refunds remaining balance in escrow\n    modifier expired() {\n        require(block.timestamp > expiration);\n        _;\n    }\n\n    /// @notice agreement not expired, refunds remaining balance in escrow\n    modifier notExpired() {\n        require(block.timestamp < expiration);\n        _;\n    }\n\n    /// @notice agreement not locked\n    modifier notLocked() {\n        require(!locked);\n        _;\n    }\n\n    /// @notice add content to the agreement\n    function addContent(string _name, \n        string _description, \n        uint _reward) notLocked onlyBrand validReward(_reward) \n        public returns(bool _success) {\n            return content.put(_name, _description, _reward);\n    }\n\n    function _fulfill(bytes32 _id) private returns (bool) {\n        bool _fulfilled = content.fulfill(_id, creator, brand);\n        if(_fulfilled) {\n            return completeDeliverable(_id, creator, brand);\n        }\n\n        return false;\n    }\n\n    function fulfillDeliverable(bytes32 _id) notExpired onlyCreator public returns (bool) {\n        return _fulfill(_id);\n    }\n\n    function approveDeliverable(bytes32 _id) onlyBrand public returns (bool) {\n        return _fulfill(_id);\n    }\n    \n    function claim(bytes32 _id) external onlyCreator {\n        claimableRewards[_id] = 0;\n    }\n\n\n    function lock() onlyBrand public {\n        content.locked == true;\n        locked = true;\n        startTime = block.timestamp;\n    }\n\n    function extendExpiration(uint _expiration) onlyBrand public returns (bool) {\n        require(_expiration > expiration && _expiration >= block.timestamp);\n        expiration = _expiration;\n        return true;\n    }\n\n    function destroy() onlyBrand expired public {\n        selfdestruct(msg.sender);\n    }\n\n    function deposit() payable {}\n}\n",
  "sourcePath": "/Users/kc1116/Desktop/credit-coin/credit-coin-contracts/contracts/Agreement.sol",
  "compiler": {
    "name": "solc",
    "version": "0.4.24+commit.e67f0147.Emscripten.clang"
  },
  "schemaVersion": "2.0.0",
  "updatedAt": "2018-06-25T04:59:24.882Z"
}