{
  "contractName": "Agreement",
  "abi": [
    {
      "constant": true,
      "inputs": [],
      "name": "creator",
      "outputs": [
        {
          "name": "",
          "type": "address"
        }
      ],
      "payable": false,
      "stateMutability": "view",
      "type": "function"
    },
    {
      "constant": true,
      "inputs": [],
      "name": "brand",
      "outputs": [
        {
          "name": "",
          "type": "address"
        }
      ],
      "payable": false,
      "stateMutability": "view",
      "type": "function"
    },
    {
      "constant": true,
      "inputs": [
        {
          "name": "_name",
          "type": "string"
        }
      ],
      "name": "currentFulfillment",
      "outputs": [
        {
          "name": "fulfillment",
          "type": "bool"
        }
      ],
      "payable": false,
      "stateMutability": "view",
      "type": "function"
    },
    {
      "constant": true,
      "inputs": [],
      "name": "expiration",
      "outputs": [
        {
          "name": "",
          "type": "uint256"
        }
      ],
      "payable": false,
      "stateMutability": "view",
      "type": "function"
    },
    {
      "constant": true,
      "inputs": [],
      "name": "content",
      "outputs": [
        {
          "name": "locked",
          "type": "bool"
        }
      ],
      "payable": false,
      "stateMutability": "view",
      "type": "function"
    },
    {
      "constant": true,
      "inputs": [],
      "name": "createdOn",
      "outputs": [
        {
          "name": "",
          "type": "uint256"
        }
      ],
      "payable": false,
      "stateMutability": "view",
      "type": "function"
    },
    {
      "constant": true,
      "inputs": [
        {
          "name": "_name",
          "type": "string"
        }
      ],
      "name": "getContentByName",
      "outputs": [
        {
          "name": "name",
          "type": "string"
        },
        {
          "name": "description",
          "type": "string"
        },
        {
          "name": "reward",
          "type": "uint256"
        },
        {
          "name": "addedOn",
          "type": "uint256"
        }
      ],
      "payable": false,
      "stateMutability": "view",
      "type": "function"
    },
    {
      "constant": true,
      "inputs": [],
      "name": "locked",
      "outputs": [
        {
          "name": "",
          "type": "bool"
        }
      ],
      "payable": false,
      "stateMutability": "view",
      "type": "function"
    },
    {
      "inputs": [
        {
          "name": "_creator",
          "type": "address"
        },
        {
          "name": "_expiration",
          "type": "uint256"
        }
      ],
      "payable": false,
      "stateMutability": "nonpayable",
      "type": "constructor"
    },
    {
      "constant": false,
      "inputs": [
        {
          "name": "_name",
          "type": "string"
        },
        {
          "name": "_description",
          "type": "string"
        },
        {
          "name": "_reward",
          "type": "uint256"
        }
      ],
      "name": "addContent",
      "outputs": [
        {
          "name": "_success",
          "type": "bool"
        }
      ],
      "payable": true,
      "stateMutability": "payable",
      "type": "function"
    },
    {
      "constant": false,
      "inputs": [
        {
          "name": "_id",
          "type": "bytes32"
        }
      ],
      "name": "fulfillDeliverable",
      "outputs": [
        {
          "name": "",
          "type": "bool"
        }
      ],
      "payable": false,
      "stateMutability": "nonpayable",
      "type": "function"
    },
    {
      "constant": false,
      "inputs": [
        {
          "name": "_id",
          "type": "bytes32"
        }
      ],
      "name": "approveDeliverable",
      "outputs": [
        {
          "name": "",
          "type": "bool"
        }
      ],
      "payable": false,
      "stateMutability": "nonpayable",
      "type": "function"
    },
    {
      "constant": false,
      "inputs": [],
      "name": "lock",
      "outputs": [],
      "payable": false,
      "stateMutability": "nonpayable",
      "type": "function"
    },
    {
      "constant": false,
      "inputs": [],
      "name": "destroy",
      "outputs": [],
      "payable": false,
      "stateMutability": "nonpayable",
      "type": "function"
    },
    {
      "constant": false,
      "inputs": [],
      "name": "deposit",
      "outputs": [],
      "payable": true,
      "stateMutability": "payable",
      "type": "function"
    }
  ],
  "bytecode": "0x6080604052600060035534801561001557600080fd5b50604051604080611337833981018060405281019080805190602001909291908051906020019092919050505033600760006101000a81548173ffffffffffffffffffffffffffffffffffffffff021916908373ffffffffffffffffffffffffffffffffffffffff16021790555081600860006101000a81548173ffffffffffffffffffffffffffffffffffffffff021916908373ffffffffffffffffffffffffffffffffffffffff16021790555080600681905550505061125b806100dc6000396000f3006080604052600436106100d0576000357c0100000000000000000000000000000000000000000000000000000000900463ffffffff16806302d05d3f146100d55780632d9fff011461012c5780633b72a1b614610183578063418c7de1146101cc5780634665096d1461024d578063700971061461027857806383197ef01461033c5780638a4d5a67146103535780639f2ce59414610382578063c3e0bbad146103ad578063cf30901214610509578063d0e30db014610538578063d30fa94614610542578063f83d08ba1461058b575b600080fd5b3480156100e157600080fd5b506100ea6105a2565b604051808273ffffffffffffffffffffffffffffffffffffffff1673ffffffffffffffffffffffffffffffffffffffff16815260200191505060405180910390f35b34801561013857600080fd5b506101416105c8565b604051808273ffffffffffffffffffffffffffffffffffffffff1673ffffffffffffffffffffffffffffffffffffffff16815260200191505060405180910390f35b34801561018f57600080fd5b506101b260048036038101908080356000191690602001909291905050506105ee565b604051808215151515815260200191505060405180910390f35b3480156101d857600080fd5b50610233600480360381019080803590602001908201803590602001908080601f016020809104026020016040519081016040528093929190818152602001838380828437820191505050505050919291929050505061065c565b604051808215151515815260200191505060405180910390f35b34801561025957600080fd5b506102626107ff565b6040518082815260200191505060405180910390f35b610322600480360381019080803590602001908201803590602001908080601f0160208091040260200160405190810160405280939291908181526020018383808284378201915050505050509192919290803590602001908201803590602001908080601f016020809104026020016040519081016040528093929190818152602001838380828437820191505050505050919291929080359060200190929190505050610805565b604051808215151515815260200191505060405180910390f35b34801561034857600080fd5b50610351610a36565b005b34801561035f57600080fd5b50610368610abb565b604051808215151515815260200191505060405180910390f35b34801561038e57600080fd5b50610397610ad4565b6040518082815260200191505060405180910390f35b3480156103b957600080fd5b50610414600480360381019080803590602001908201803590602001908080601f0160208091040260200160405190810160405280939291908181526020018383808284378201915050505050509192919290505050610ada565b604051808060200180602001858152602001848152602001838103835287818151815260200191508051906020019080838360005b83811015610464578082015181840152602081019050610449565b50505050905090810190601f1680156104915780820380516001836020036101000a031916815260200191505b50838103825286818151815260200191508051906020019080838360005b838110156104ca5780820151818401526020810190506104af565b50505050905090810190601f1680156104f75780820380516001836020036101000a031916815260200191505b50965050505050505060405180910390f35b34801561051557600080fd5b5061051e610dbc565b604051808215151515815260200191505060405180910390f35b610540610dcf565b005b34801561054e57600080fd5b506105716004803603810190808035600019169060200190929190505050610dd1565b604051808215151515815260200191505060405180910390f35b34801561059757600080fd5b506105a0610e3f565b005b600860009054906101000a900473ffffffffffffffffffffffffffffffffffffffff1681565b600760009054906101000a900473ffffffffffffffffffffffffffffffffffffffff1681565b6000600760009054906101000a900473ffffffffffffffffffffffffffffffffffffffff1673ffffffffffffffffffffffffffffffffffffffff163373ffffffffffffffffffffffffffffffffffffffff1614151561064c57600080fd5b61065582610ece565b9050919050565b60008060008073__ContentUtils__________________________6351d7b89a9091866040518363ffffffff167c01000000000000000000000000000000000000000000000000000000000281526004018083815260200180602001828103825283818151815260200191508051906020019080838360005b838110156106f05780820151818401526020810190506106d5565b50505050905090810190601f16801561071d5780820380516001836020036101000a031916815260200191505b50935050505060006040518083038186803b15801561073b57600080fd5b505af415801561074f573d6000803e3d6000fd5b505050506040513d6000823e3d601f19601f82011682018060405250604081101561077957600080fd5b8101908080519060200190929190805190602001909291905050509150915080156107f7578160040160010160003373ffffffffffffffffffffffffffffffffffffffff1673ffffffffffffffffffffffffffffffffffffffff16815260200190815260200160002060009054906101000a900460ff1692506107f8565b5b5050919050565b60065481565b6000600760009054906101000a900473ffffffffffffffffffffffffffffffffffffffff1673ffffffffffffffffffffffffffffffffffffffff163373ffffffffffffffffffffffffffffffffffffffff1614151561086357600080fd5b816000341180156108745750600081115b80156108805750803410155b151561088b57600080fd5b6108a0346003546110b290919063ffffffff16565b50600073__ContentUtils__________________________6377fc455990918787876040518563ffffffff167c0100000000000000000000000000000000000000000000000000000000028152600401808581526020018060200180602001848152602001838103835286818151815260200191508051906020019080838360005b8381101561093d578082015181840152602081019050610922565b50505050905090810190601f16801561096a5780820380516001836020036101000a031916815260200191505b50838103825285818151815260200191508051906020019080838360005b838110156109a3578082015181840152602081019050610988565b50505050905090810190601f1680156109d05780820380516001836020036101000a031916815260200191505b50965050505050505060206040518083038186803b1580156109f157600080fd5b505af4158015610a05573d6000803e3d6000fd5b505050506040513d6020811015610a1b57600080fd5b81019080805190602001909291905050509150509392505050565b600760009054906101000a900473ffffffffffffffffffffffffffffffffffffffff1673ffffffffffffffffffffffffffffffffffffffff163373ffffffffffffffffffffffffffffffffffffffff16141515610a9257600080fd5b60065442111515610aa257600080fd5b3373ffffffffffffffffffffffffffffffffffffffff16ff5b60008060020160009054906101000a900460ff16905081565b60055481565b606080600080600080600073__ContentUtils__________________________6351d7b89a9091896040518363ffffffff167c01000000000000000000000000000000000000000000000000000000000281526004018083815260200180602001828103825283818151815260200191508051906020019080838360005b83811015610b73578082015181840152602081019050610b58565b50505050905090810190601f168015610ba05780820380516001836020036101000a031916815260200191505b50935050505060006040518083038186803b158015610bbe57600080fd5b505af4158015610bd2573d6000803e3d6000fd5b505050506040513d6000823e3d601f19601f820116820180604052506040811015610bfc57600080fd5b810190808051906020019092919080519060200190929190505050915091508015610d7b57816001018260020183600401600001548460030154838054600181600116156101000203166002900480601f016020809104026020016040519081016040528092919081815260200182805460018160011615610100020316600290048015610ccb5780601f10610ca057610100808354040283529160200191610ccb565b820191906000526020600020905b815481529060010190602001808311610cae57829003601f168201915b50505050509350828054600181600116156101000203166002900480601f016020809104026020016040519081016040528092919081815260200182805460018160011615610100020316600290048015610d675780601f10610d3c57610100808354040283529160200191610d67565b820191906000526020600020905b815481529060010190602001808311610d4a57829003601f168201915b505050505092509550955095509550610db3565b600080602060405190810160405280600081525091906020604051908101604052806000815250919081915080905095509550955095505b50509193509193565b600460009054906101000a900460ff1681565b565b6000600860009054906101000a900473ffffffffffffffffffffffffffffffffffffffff1673ffffffffffffffffffffffffffffffffffffffff163373ffffffffffffffffffffffffffffffffffffffff16141515610e2f57600080fd5b610e3882610ece565b9050919050565b600760009054906101000a900473ffffffffffffffffffffffffffffffffffffffff1673ffffffffffffffffffffffffffffffffffffffff163373ffffffffffffffffffffffffffffffffffffffff16141515610e9b57600080fd5b60011515600060020160009054906101000a905050506001600460006101000a81548160ff021916908315150217905550565b600080600073__ContentUtils__________________________635e465cc6909185600860009054906101000a900473ffffffffffffffffffffffffffffffffffffffff16600760009054906101000a900473ffffffffffffffffffffffffffffffffffffffff166040518563ffffffff167c01000000000000000000000000000000000000000000000000000000000281526004018085815260200184600019166000191681526020018373ffffffffffffffffffffffffffffffffffffffff1673ffffffffffffffffffffffffffffffffffffffff1681526020018273ffffffffffffffffffffffffffffffffffffffff1673ffffffffffffffffffffffffffffffffffffffff16815260200194505050505060206040518083038186803b158015610ffb57600080fd5b505af415801561100f573d6000803e3d6000fd5b505050506040513d602081101561102557600080fd5b810190808051906020019092919050505090508080156110925750600860009054906101000a900473ffffffffffffffffffffffffffffffffffffffff1673ffffffffffffffffffffffffffffffffffffffff163373ffffffffffffffffffffffffffffffffffffffff16145b156110a7576110a0836110ce565b91506110ac565b600091505b50919050565b600081830190508281101515156110c557fe5b80905092915050565b600080600073__ContentUtils__________________________6385e2fffe9091856040518363ffffffff167c01000000000000000000000000000000000000000000000000000000000281526004018083815260200182600019166000191681526020019250505060206040518083038186803b15801561114f57600080fd5b505af4158015611163573d6000803e3d6000fd5b505050506040513d602081101561117957600080fd5b81019080805190602001909291905050509050600354811015151561119d57600080fd5b6111a6816111ae565b915050919050565b60003373ffffffffffffffffffffffffffffffffffffffff166108fc839081150290604051600060405180830381858888f193505050501580156111f6573d6000803e3d6000fd5b5061120c8260035461121690919063ffffffff16565b5060019050919050565b600082821115151561122457fe5b8183039050929150505600a165627a7a7230582028fb16ca71bf6ab0223408c16de4665b5a992987c72c3dde61c913a1a3729d730029",
  "source": "pragma solidity ^0.4.23;\n\nimport './Escrow.sol';\nimport './ContentUtils.sol';\n\ncontract Agreement is Escrow {\n    \n    bool public locked;\n    uint  public createdOn;\n    uint public expiration;\n    address public brand;\n    address public creator;\n    \n    constructor(address _creator, uint _expiration) public {\n        brand = msg.sender;\n        creator = _creator;\n        expiration = _expiration;\n    }\n\n    /// @notice only brand is authorized\n    modifier onlyBrand() {\n        require(msg.sender == brand);\n        _;\n    }\n\n    /// @notice only creator is authorized\n    modifier onlyCreator() {\n        require(msg.sender == creator);\n        _;\n    }\n\n    /// @notice deliverable fulfilled\n    modifier fulfilled(bytes32 _id) {\n        require(content.isFulfilled(_id, creator, brand));\n        _;\n    }\n\n    /// @notice agreement expired, refunds remaining balance in escrow\n    modifier expired() {\n        require(block.timestamp > expiration);\n        _;\n    }\n\n    /// @notice add content to the agreement\n    function addContent(string _name, \n        string _description, \n        uint _reward) onlyBrand validReward(_reward) \n        public payable returns(bool _success) {\n            return content.put(_name, _description, _reward);\n    }\n\n    function _fulfill(bytes32 _id) private returns (bool) {\n        bool _fulfilled = content.fulfill(_id, creator, brand);\n        if(_fulfilled && msg.sender == creator) {\n            return completeDeliverable(_id);\n        }\n\n        return false;\n    }\n\n    function fulfillDeliverable(bytes32 _id) onlyCreator public returns (bool) {\n        return _fulfill(_id);\n    }\n\n    function approveDeliverable(bytes32 _id) onlyBrand public returns (bool) {\n        return _fulfill(_id);\n    }\n\n    function lock() onlyBrand public {\n        content.locked == true;\n        locked = true;\n    }\n\n    function destroy() onlyBrand expired public {\n        selfdestruct(msg.sender);\n    }\n\n    function deposit() payable {}\n}\n",
  "sourcePath": "/Users/kc1116/Desktop/credit-coin/credit-coin-contracts/contracts/Agreement.sol",
  "compiler": {
    "name": "solc",
    "version": "0.4.23+commit.124ca40d.Emscripten.clang"
  },
  "schemaVersion": "2.0.0",
  "updatedAt": "2018-06-03T07:16:20.555Z"
}