{
  "contractName": "Agreement",
  "abi": [
    {
      "constant": true,
      "inputs": [],
      "name": "creator",
      "outputs": [
        {
          "name": "",
          "type": "address"
        }
      ],
      "payable": false,
      "stateMutability": "view",
      "type": "function"
    },
    {
      "constant": true,
      "inputs": [],
      "name": "brand",
      "outputs": [
        {
          "name": "",
          "type": "address"
        }
      ],
      "payable": false,
      "stateMutability": "view",
      "type": "function"
    },
    {
      "constant": true,
      "inputs": [],
      "name": "expiration",
      "outputs": [
        {
          "name": "",
          "type": "uint256"
        }
      ],
      "payable": false,
      "stateMutability": "view",
      "type": "function"
    },
    {
      "constant": true,
      "inputs": [],
      "name": "createdOn",
      "outputs": [
        {
          "name": "",
          "type": "uint256"
        }
      ],
      "payable": false,
      "stateMutability": "view",
      "type": "function"
    },
    {
      "constant": true,
      "inputs": [],
      "name": "locked",
      "outputs": [
        {
          "name": "",
          "type": "bool"
        }
      ],
      "payable": false,
      "stateMutability": "view",
      "type": "function"
    },
    {
      "inputs": [
        {
          "name": "_creator",
          "type": "address"
        },
        {
          "name": "_expiration",
          "type": "uint256"
        }
      ],
      "payable": false,
      "stateMutability": "nonpayable",
      "type": "constructor"
    },
    {
      "constant": false,
      "inputs": [
        {
          "name": "_name",
          "type": "string"
        },
        {
          "name": "_description",
          "type": "string"
        },
        {
          "name": "_addedOn",
          "type": "uint256"
        },
        {
          "name": "_reward",
          "type": "uint256"
        }
      ],
      "name": "addContent",
      "outputs": [
        {
          "name": "_success",
          "type": "bool"
        }
      ],
      "payable": true,
      "stateMutability": "payable",
      "type": "function"
    },
    {
      "constant": false,
      "inputs": [
        {
          "name": "_id",
          "type": "bytes32"
        }
      ],
      "name": "fulfillDeliverable",
      "outputs": [
        {
          "name": "",
          "type": "bool"
        }
      ],
      "payable": false,
      "stateMutability": "nonpayable",
      "type": "function"
    },
    {
      "constant": false,
      "inputs": [
        {
          "name": "_id",
          "type": "bytes32"
        }
      ],
      "name": "approveDeliverable",
      "outputs": [
        {
          "name": "",
          "type": "bool"
        }
      ],
      "payable": false,
      "stateMutability": "nonpayable",
      "type": "function"
    },
    {
      "constant": false,
      "inputs": [],
      "name": "lock",
      "outputs": [],
      "payable": false,
      "stateMutability": "nonpayable",
      "type": "function"
    },
    {
      "constant": false,
      "inputs": [],
      "name": "destroy",
      "outputs": [],
      "payable": false,
      "stateMutability": "nonpayable",
      "type": "function"
    }
  ],
  "bytecode": "0x6080604052600060035534801561001557600080fd5b50604051604080610c0f833981018060405281019080805190602001909291908051906020019092919050505033600760006101000a81548173ffffffffffffffffffffffffffffffffffffffff021916908373ffffffffffffffffffffffffffffffffffffffff16021790555081600860006101000a81548173ffffffffffffffffffffffffffffffffffffffff021916908373ffffffffffffffffffffffffffffffffffffffff160217905550806006819055505050610b33806100dc6000396000f3006080604052600436106100a4576000357c0100000000000000000000000000000000000000000000000000000000900463ffffffff16806302d05d3f146100a95780632d9fff01146101005780633b72a1b6146101575780634665096d146101a057806383197ef0146101cb57806389160f54146101e25780639f2ce594146102b0578063cf309012146102db578063d30fa9461461030a578063f83d08ba14610353575b600080fd5b3480156100b557600080fd5b506100be61036a565b604051808273ffffffffffffffffffffffffffffffffffffffff1673ffffffffffffffffffffffffffffffffffffffff16815260200191505060405180910390f35b34801561010c57600080fd5b50610115610390565b604051808273ffffffffffffffffffffffffffffffffffffffff1673ffffffffffffffffffffffffffffffffffffffff16815260200191505060405180910390f35b34801561016357600080fd5b5061018660048036038101908080356000191690602001909291905050506103b6565b604051808215151515815260200191505060405180910390f35b3480156101ac57600080fd5b506101b5610424565b6040518082815260200191505060405180910390f35b3480156101d757600080fd5b506101e061042a565b005b610296600480360381019080803590602001908201803590602001908080601f0160208091040260200160405190810160405280939291908181526020018383808284378201915050505050509192919290803590602001908201803590602001908080601f016020809104026020016040519081016040528093929190818152602001838380828437820191505050505050919291929080359060200190929190803590602001909291905050506104af565b604051808215151515815260200191505060405180910390f35b3480156102bc57600080fd5b506102c56106e9565b6040518082815260200191505060405180910390f35b3480156102e757600080fd5b506102f06106ef565b604051808215151515815260200191505060405180910390f35b34801561031657600080fd5b506103396004803603810190808035600019169060200190929190505050610702565b604051808215151515815260200191505060405180910390f35b34801561035f57600080fd5b50610368610770565b005b600860009054906101000a900473ffffffffffffffffffffffffffffffffffffffff1681565b600760009054906101000a900473ffffffffffffffffffffffffffffffffffffffff1681565b6000600760009054906101000a900473ffffffffffffffffffffffffffffffffffffffff1673ffffffffffffffffffffffffffffffffffffffff163373ffffffffffffffffffffffffffffffffffffffff1614151561041457600080fd5b61041d826107ff565b9050919050565b60065481565b600760009054906101000a900473ffffffffffffffffffffffffffffffffffffffff1673ffffffffffffffffffffffffffffffffffffffff163373ffffffffffffffffffffffffffffffffffffffff1614151561048657600080fd5b6006544211151561049657600080fd5b3373ffffffffffffffffffffffffffffffffffffffff16ff5b6000600760009054906101000a900473ffffffffffffffffffffffffffffffffffffffff1673ffffffffffffffffffffffffffffffffffffffff163373ffffffffffffffffffffffffffffffffffffffff1614151561050d57600080fd5b8160003411801561051e5750600081115b801561052a5750803410155b151561053557600080fd5b61054a3460035461098a90919063ffffffff16565b50600073__ContentUtils__________________________63804870b49091888888886040518663ffffffff167c0100000000000000000000000000000000000000000000000000000000028152600401808681526020018060200180602001858152602001848152602001838103835287818151815260200191508051906020019080838360005b838110156105ee5780820151818401526020810190506105d3565b50505050905090810190601f16801561061b5780820380516001836020036101000a031916815260200191505b50838103825286818151815260200191508051906020019080838360005b83811015610654578082015181840152602081019050610639565b50505050905090810190601f1680156106815780820380516001836020036101000a031916815260200191505b5097505050505050505060206040518083038186803b1580156106a357600080fd5b505af41580156106b7573d6000803e3d6000fd5b505050506040513d60208110156106cd57600080fd5b8101908080519060200190929190505050915050949350505050565b60055481565b600460009054906101000a900460ff1681565b6000600860009054906101000a900473ffffffffffffffffffffffffffffffffffffffff1673ffffffffffffffffffffffffffffffffffffffff163373ffffffffffffffffffffffffffffffffffffffff1614151561076057600080fd5b610769826107ff565b9050919050565b600760009054906101000a900473ffffffffffffffffffffffffffffffffffffffff1673ffffffffffffffffffffffffffffffffffffffff163373ffffffffffffffffffffffffffffffffffffffff161415156107cc57600080fd5b60011515600060020160009054906101000a905050506001600460006101000a81548160ff021916908315150217905550565b600080600073__ContentUtils__________________________635e465cc6909185600860009054906101000a900473ffffffffffffffffffffffffffffffffffffffff16600760009054906101000a900473ffffffffffffffffffffffffffffffffffffffff166040518563ffffffff167c01000000000000000000000000000000000000000000000000000000000281526004018085815260200184600019166000191681526020018373ffffffffffffffffffffffffffffffffffffffff1673ffffffffffffffffffffffffffffffffffffffff1681526020018273ffffffffffffffffffffffffffffffffffffffff1673ffffffffffffffffffffffffffffffffffffffff16815260200194505050505060206040518083038186803b15801561092c57600080fd5b505af4158015610940573d6000803e3d6000fd5b505050506040513d602081101561095657600080fd5b81019080805190602001909291905050509050801561097f57610978836109a6565b9150610984565b600091505b50919050565b6000818301905082811015151561099d57fe5b80905092915050565b600080600073__ContentUtils__________________________6385e2fffe9091856040518363ffffffff167c01000000000000000000000000000000000000000000000000000000000281526004018083815260200182600019166000191681526020019250505060206040518083038186803b158015610a2757600080fd5b505af4158015610a3b573d6000803e3d6000fd5b505050506040513d6020811015610a5157600080fd5b810190808051906020019092919050505090506003548110151515610a7557600080fd5b610a7e81610a86565b915050919050565b60003373ffffffffffffffffffffffffffffffffffffffff166108fc839081150290604051600060405180830381858888f19350505050158015610ace573d6000803e3d6000fd5b50610ae482600354610aee90919063ffffffff16565b5060019050919050565b6000828211151515610afc57fe5b8183039050929150505600a165627a7a72305820a74d6c5533e1a1de381ce3b74778018c018d2353173246698986d13d37930f850029",
  "source": "pragma solidity ^0.4.23;\n\nimport './Escrow.sol';\nimport './ContentUtils.sol';\n\ncontract Agreement is Escrow {\n    \n    bool public locked;\n    uint  public createdOn;\n    uint public expiration;\n    address public brand;\n    address public creator;\n    \n    constructor(address _creator, uint _expiration) public {\n        brand = msg.sender;\n        creator = _creator;\n        expiration = _expiration;\n    }\n\n    /// @notice only brand is authorized\n    modifier onlyBrand() {\n        require(msg.sender == brand);\n        _;\n    }\n\n    /// @notice only creator is authorized\n    modifier onlyCreator() {\n        require(msg.sender == creator);\n        _;\n    }\n\n    /// @notice deliverable fulfilled\n    modifier fulfilled(bytes32 _id) {\n        require(content.isFulfilled(_id, creator, brand));\n        _;\n    }\n\n    /// @notice agreement expired, refunds remaining balance in escrow\n    modifier expired() {\n        require(block.timestamp > expiration);\n        _;\n    }\n\n    /// @notice add content to the agreement\n    function addContent(string _name, \n        string _description, \n        uint _addedOn,\n        uint _reward) onlyBrand validReward(_reward) \n        public payable returns(bool _success) {\n            return content.put(_name, _description, _addedOn, _reward);\n    }\n\n    function _fulfill(bytes32 _id) private returns (bool) {\n        bool _fulfilled = content.fulfill(_id, creator, brand);\n        if(_fulfilled) {\n            return completeDeliverable(_id);\n        }\n\n        return false;\n    }\n\n    function fulfillDeliverable(bytes32 _id) onlyCreator public returns (bool) {\n        return _fulfill(_id);\n    }\n\n    function approveDeliverable(bytes32 _id) onlyBrand public returns (bool) {\n        return _fulfill(_id);\n    }\n\n    function lock() onlyBrand public {\n        content.locked == true;\n        locked = true;\n    }\n\n    function destroy() onlyBrand expired public {\n        selfdestruct(msg.sender);\n    }\n}\n",
  "sourcePath": "/Users/kc1116/Desktop/credit-coin/credit-coin-contracts/contracts/Agreement.sol",
  "compiler": {
    "name": "solc",
    "version": "0.4.23+commit.124ca40d.Emscripten.clang"
  },
  "schemaVersion": "2.0.0",
  "updatedAt": "2018-05-30T05:23:34.139Z"
}