{
  "contractName": "ContentUtils",
  "abi": [
    {
      "constant": false,
      "inputs": [
        {
          "name": "self",
          "type": "ContentUtils.ContentMapping storage"
        },
        {
          "name": "_name",
          "type": "string"
        },
        {
          "name": "_description",
          "type": "string"
        },
        {
          "name": "_addedOn",
          "type": "uint256"
        },
        {
          "name": "_reward",
          "type": "uint256"
        }
      ],
      "name": "put",
      "outputs": [
        {
          "name": "",
          "type": "bool"
        }
      ],
      "payable": false,
      "stateMutability": "nonpayable",
      "type": "function"
    },
    {
      "constant": true,
      "inputs": [
        {
          "name": "self",
          "type": "ContentUtils.ContentMapping storage"
        }
      ],
      "name": "size",
      "outputs": [
        {
          "name": "",
          "type": "uint256"
        }
      ],
      "payable": false,
      "stateMutability": "view",
      "type": "function"
    },
    {
      "constant": true,
      "inputs": [
        {
          "name": "self",
          "type": "ContentUtils.ContentMapping storage"
        },
        {
          "name": "_id",
          "type": "bytes32"
        }
      ],
      "name": "rewardOf",
      "outputs": [
        {
          "name": "",
          "type": "uint256"
        }
      ],
      "payable": false,
      "stateMutability": "view",
      "type": "function"
    },
    {
      "constant": true,
      "inputs": [
        {
          "name": "self",
          "type": "ContentUtils.ContentMapping storage"
        },
        {
          "name": "_index",
          "type": "uint256"
        }
      ],
      "name": "getKey",
      "outputs": [
        {
          "name": "",
          "type": "bytes32"
        }
      ],
      "payable": false,
      "stateMutability": "view",
      "type": "function"
    },
    {
      "constant": true,
      "inputs": [
        {
          "name": "self",
          "type": "ContentUtils.ContentMapping storage"
        },
        {
          "name": "_name",
          "type": "string"
        }
      ],
      "name": "getContentByName",
      "outputs": [
        {
          "name": "_content",
          "type": "ContentUtils.Content storage"
        },
        {
          "name": "exists",
          "type": "bool"
        }
      ],
      "payable": false,
      "stateMutability": "view",
      "type": "function"
    },
    {
      "constant": true,
      "inputs": [
        {
          "name": "self",
          "type": "ContentUtils.ContentMapping storage"
        },
        {
          "name": "_id",
          "type": "bytes32"
        }
      ],
      "name": "getContentByID",
      "outputs": [
        {
          "name": "_content",
          "type": "ContentUtils.Content storage"
        },
        {
          "name": "exists",
          "type": "bool"
        }
      ],
      "payable": false,
      "stateMutability": "view",
      "type": "function"
    },
    {
      "constant": true,
      "inputs": [
        {
          "name": "self",
          "type": "ContentUtils.ContentMapping storage"
        },
        {
          "name": "_index",
          "type": "uint256"
        }
      ],
      "name": "getContentByKeyIndex",
      "outputs": [
        {
          "name": "_content",
          "type": "ContentUtils.Content storage"
        }
      ],
      "payable": false,
      "stateMutability": "view",
      "type": "function"
    },
    {
      "constant": false,
      "inputs": [
        {
          "name": "self",
          "type": "ContentUtils.ContentMapping storage"
        },
        {
          "name": "_id",
          "type": "bytes32"
        },
        {
          "name": "_creator",
          "type": "address"
        },
        {
          "name": "_brand",
          "type": "address"
        }
      ],
      "name": "fulfill",
      "outputs": [
        {
          "name": "",
          "type": "bool"
        }
      ],
      "payable": false,
      "stateMutability": "nonpayable",
      "type": "function"
    },
    {
      "constant": true,
      "inputs": [
        {
          "name": "self",
          "type": "ContentUtils.ContentMapping storage"
        },
        {
          "name": "_id",
          "type": "bytes32"
        },
        {
          "name": "_creator",
          "type": "address"
        },
        {
          "name": "_brand",
          "type": "address"
        }
      ],
      "name": "isFulfilled",
      "outputs": [
        {
          "name": "",
          "type": "bool"
        }
      ],
      "payable": false,
      "stateMutability": "view",
      "type": "function"
    },
    {
      "constant": true,
      "inputs": [
        {
          "name": "_name",
          "type": "string"
        }
      ],
      "name": "generateContentID",
      "outputs": [
        {
          "name": "",
          "type": "bytes32"
        }
      ],
      "payable": false,
      "stateMutability": "pure",
      "type": "function"
    },
    {
      "constant": true,
      "inputs": [
        {
          "name": "_index",
          "type": "uint256"
        },
        {
          "name": "_size",
          "type": "uint256"
        }
      ],
      "name": "isValidIndex",
      "outputs": [],
      "payable": false,
      "stateMutability": "pure",
      "type": "function"
    }
  ],
  "bytecode": "0x610d3e610030600b82828239805160001a6073146000811461002057610022565bfe5b5030600052607381538281f30073000000000000000000000000000000000000000030146080604052600436106100c6576000357c0100000000000000000000000000000000000000000000000000000000900463ffffffff1680630949a43d146100cb5780632bbf3d6b146101095780633da738e91461015657806351d7b89a1461018a5780635dcdb7b11461020f5780635e465cc61461025557806365e8faf6146102e857806379c749cd14610312578063804870b41461038a57806385e2fffe1461046f578063c37a5a5e146104b1575b600080fd5b6100f36004803603810190808035906020019092919080359060200190929190505050610537565b6040518082815260200191505060405180910390f35b61013560048036038101908080359060200190929190803560001916906020019092919050505061058a565b60405180838152602001821515151581526020019250505060405180910390f35b610174600480360381019080803590602001909291905050506105e7565b6040518082815260200191505060405180910390f35b6101ee60048036038101908080359060200190929190803590602001908201803590602001908080601f01602080910402602001604051908101604052809392919081815260200183838082843782019150505050505091929192905050506105f8565b60405180838152602001821515151581526020019250505060405180910390f35b6102376004803603810190808035906020019092919080359060200190929190505050610663565b60405180826000191660001916815260200191505060405180910390f35b81801561026157600080fd5b506102ce600480360381019080803590602001909291908035600019169060200190929190803573ffffffffffffffffffffffffffffffffffffffff169060200190929190803573ffffffffffffffffffffffffffffffffffffffff16906020019092919050505061069a565b604051808215151515815260200191505060405180910390f35b61031060048036038101908080359060200190929190803590602001909291905050506106da565b005b61036c600480360381019080803590602001908201803590602001908080601f01602080910402602001604051908101604052809392919081815260200183838082843782019150505050505091929192905050506107c0565b60405180826000191660001916815260200191505060405180910390f35b81801561039657600080fd5b5061045560048036038101908080359060200190929190803590602001908201803590602001908080601f0160208091040260200160405190810160405280939291908181526020018383808284378201915050505050509192919290803590602001908201803590602001908080601f0160208091040260200160405190810160405280939291908181526020018383808284378201915050505050509192919290803590602001909291908035906020019092919050505061082c565b604051808215151515815260200191505060405180910390f35b61049b600480360381019080803590602001909291908035600019169060200190929190505050610991565b6040518082815260200191505060405180910390f35b61051d600480360381019080803590602001909291908035600019169060200190929190803573ffffffffffffffffffffffffffffffffffffffff169060200190929190803573ffffffffffffffffffffffffffffffffffffffff1690602001909291905050506109bf565b604051808215151515815260200191505060405180910390f35b600061054a8284600101805490506106da565b826000016000846001018481548110151561056157fe5b906000526020600020015460001916600019168152602001908152602001600020905092915050565b60008083600001600084600019166000191681526020019081526020016000206000600102600019168560000160008660001916600019168152602001908152602001600020600001546000191614819150915091509250929050565b600081600101805490509050919050565b6000806000610606846107c0565b90508460000160008260001916600019168152602001908152602001600020600060010260001916866000016000846000191660001916815260200190815260200160002060000154600019161481915092509250509250929050565b60006106768284600101805490506106da565b826001018281548110151561068757fe5b9060005260206000200154905092915050565b60006106d0838387600001600088600019166000191681526020019081526020016000206004016109ff9092919063ffffffff16565b9050949350505050565b8082106040805190810160405280600d81526020017f4b6579206e6f7420666f756e64000000000000000000000000000000000000008152509015156107bb576040517f08c379a00000000000000000000000000000000000000000000000000000000081526004018080602001828103825283818151815260200191508051906020019080838360005b83811015610780578082015181840152602081019050610765565b50505050905090810190601f1680156107ad5780820380516001836020036101000a031916815260200191505b509250505060405180910390fd5b505050565b6000816040518082805190602001908083835b6020831015156107f857805182526020820191506020810190506020830392506107d3565b6001836020036101000a03801982511681845116808217855250505050505090500191505060405180910390209050919050565b6000808660020160009054906101000a900460ff1615151561084d57600080fd5b610856866107c0565b90506000600102600019168760000160008360001916600019168152602001908152602001600020600001546000191614151561089257600080fd5b60a060405190810160405280826000191681526020018781526020018681526020018581526020016108c385610b7a565b815250876000016000836000191660001916815260200190815260200160002060008201518160000190600019169055602082015181600101908051906020019061090f929190610c59565b50604082015181600201908051906020019061092c929190610c59565b506060820151816003015560808201518160040160008201518160000155505090505086600101819080600181540180825580915050906001820390600052602060002001600090919290919091509060001916905550600191505095945050505050565b6000826000016000836000191660001916815260200190815260200160002060040160000154905092915050565b60006109f583838760000160008860001916600019168152602001908152602001600020600401610ba89092919063ffffffff16565b9050949350505050565b60008273ffffffffffffffffffffffffffffffffffffffff163373ffffffffffffffffffffffffffffffffffffffff161480610a6657508173ffffffffffffffffffffffffffffffffffffffff163373ffffffffffffffffffffffffffffffffffffffff16145b1515610a7157600080fd5b60018460010160003373ffffffffffffffffffffffffffffffffffffffff1673ffffffffffffffffffffffffffffffffffffffff16815260200190815260200160002060006101000a81548160ff0219169083151502179055508360010160008473ffffffffffffffffffffffffffffffffffffffff1673ffffffffffffffffffffffffffffffffffffffff16815260200190815260200160002060009054906101000a900460ff168015610b7157508360010160008373ffffffffffffffffffffffffffffffffffffffff1673ffffffffffffffffffffffffffffffffffffffff16815260200190815260200160002060009054906101000a900460ff165b90509392505050565b610b82610cd9565b600082111515610b9157600080fd5b602060405190810160405280838152509050919050565b60008360010160008473ffffffffffffffffffffffffffffffffffffffff1673ffffffffffffffffffffffffffffffffffffffff16815260200190815260200160002060009054906101000a900460ff168015610c5057508360010160008373ffffffffffffffffffffffffffffffffffffffff1673ffffffffffffffffffffffffffffffffffffffff16815260200190815260200160002060009054906101000a900460ff165b90509392505050565b828054600181600116156101000203166002900490600052602060002090601f016020900481019282601f10610c9a57805160ff1916838001178555610cc8565b82800160010185558215610cc8579182015b82811115610cc7578251825591602001919060010190610cac565b5b509050610cd59190610ced565b5090565b602060405190810160405280600081525090565b610d0f91905b80821115610d0b576000816000905550600101610cf3565b5090565b905600a165627a7a72305820b67f7498cb8aafed190e85375d80b2d54d3b3cd94bd45a107544408ac6eef7800029",
  "source": "pragma solidity ^0.4.23;\n\nimport 'openzeppelin-solidity/contracts/math/SafeMath.sol';\n\nlibrary DeliverableUtils {\n\n    struct Deliverable {\n        uint256 reward;\n        mapping(address=>bool) fulfillment;\n    }\n\n    /// @notice msg.sender can be creator or brand and mark their delivery or approval, returns check if completely Fulfilled\n    function fulfill(Deliverable storage self, address _creator, address _brand) internal returns(bool) {\n        require(msg.sender == _creator || msg.sender == _brand);\n        self.fulfillment[msg.sender] = true;\n        return self.fulfillment[_creator] && self.fulfillment[_brand];\n    }\n\n    /// @notice check if deliverable fulfilled completely\n    function isFulfilled(Deliverable storage self, address _creator, address _brand) internal view returns(bool) {\n        return self.fulfillment[_creator] && self.fulfillment[_brand];\n    }\n\n    /// @notice return new deliverable struct if reward greater than 0\n    function newDeliverable(uint256 _reward) internal pure returns(Deliverable _deliverable) {\n        require(_reward > 0);\n        return Deliverable(_reward);\n    }\n}\n\nlibrary ContentUtils {\n    using SafeMath for uint256;\n    using DeliverableUtils for DeliverableUtils.Deliverable;\n\n    struct Content {\n        bytes32 id;\n        string name;\n        string description;\n        uint addedOn;\n        DeliverableUtils.Deliverable deliverable;\n    }\n\n    /// @notice utility for mapping bytes32=>Content. Keys must be unique. It can be updated until it is locked.\n    struct ContentMapping {\n        mapping(bytes32=>Content) data;\n        bytes32[] keys;\n        bool locked;\n    }\n\n    string constant UNIQUE_KEY_ERR = \"Content with ID already exists \";\n    string constant KEY_NOT_FOUND_ERR = \"Key not found\";\n\n    /// @notice put item into mapping\n    function put(ContentMapping storage self, \n        string _name, \n        string _description, \n        uint _addedOn,\n        uint _reward) public returns (bool) \n    {\n            require(!self.locked);\n\n            bytes32 _id = generateContentID(_name);\n            require(self.data[_id].id == bytes32(0));\n\n            self.data[_id] = Content(_id, _name, _description, _addedOn, DeliverableUtils.newDeliverable(_reward));\n            self.keys.push(_id);\n            return true;\n    }\n    \n    /// @notice get amount of items in mapping\n    function size(ContentMapping storage self) public view returns (uint) {\n        return self.keys.length;\n    }\n\n    /// @notice return reward of content delivarable\n    function rewardOf(ContentMapping storage self, bytes32 _id) public view returns (uint256) {\n        return self.data[_id].deliverable.reward;\n    }\n\n    function getKey(ContentMapping storage self, uint _index) public view returns (bytes32) {\n        isValidIndex(_index, self.keys.length);\n        return self.keys[_index];\n    }\n\n    /// @notice get content by plain string name\n    function getContentByName(ContentMapping storage self, string _name) public view returns (Content storage _content, bool exists) {\n        bytes32 _hash = generateContentID(_name);\n        return (self.data[_hash], self.data[_hash].id == bytes32(0));\n    }\n\n    /// @notice get content by sha3 ID hash\n    function getContentByID(ContentMapping storage self, bytes32 _id) public view returns (Content storage _content, bool exists) {\n        return (self.data[_id], self.data[_id].id == bytes32(0));\n    }\n\n    /// @notice get content by _index into key array \n    function getContentByKeyIndex(ContentMapping storage self, uint _index) public view returns (Content storage _content) {\n        isValidIndex(_index, self.keys.length);\n        return (self.data[self.keys[_index]]);\n    }\n\n    /// @notice wrapper around internal deliverable method\n    function fulfill(ContentMapping storage self, bytes32 _id, address _creator, address _brand) public returns(bool) {\n        return self.data[_id].deliverable.fulfill(_creator, _brand);\n    }\n\n    /// @notice wrapper around internal deliverable method\n    function isFulfilled(ContentMapping storage self, bytes32 _id, address _creator, address _brand) public view returns(bool) {\n        return self.data[_id].deliverable.isFulfilled(_creator, _brand);\n    }\n\n    /// @notice get sha256 hash of name for content ID\n    function generateContentID(string _name) public pure returns (bytes32) {\n        return keccak256(_name);\n    }\n\n    /// @notice index not out of bounds\n    function isValidIndex(uint _index, uint _size) public pure {\n        require(_index < _size, KEY_NOT_FOUND_ERR);\n    }\n}\n\n",
  "sourcePath": "/Users/kc1116/Desktop/credit-coin/credit-coin-contracts/contracts/ContentUtils.sol",
  "compiler": {
    "name": "solc",
    "version": "0.4.23+commit.124ca40d.Emscripten.clang"
  },
  "schemaVersion": "2.0.0",
  "updatedAt": "2018-05-30T05:23:34.143Z"
}