{
  "contractName": "ContentUtils",
  "abi": [
    {
      "constant": false,
      "inputs": [
        {
          "name": "self",
          "type": "ContentUtils.ContentMapping storage"
        },
        {
          "name": "_name",
          "type": "string"
        },
        {
          "name": "_description",
          "type": "string"
        },
        {
          "name": "_reward",
          "type": "uint256"
        }
      ],
      "name": "put",
      "outputs": [
        {
          "name": "",
          "type": "bool"
        }
      ],
      "payable": false,
      "stateMutability": "nonpayable",
      "type": "function"
    },
    {
      "constant": true,
      "inputs": [
        {
          "name": "self",
          "type": "ContentUtils.ContentMapping storage"
        }
      ],
      "name": "size",
      "outputs": [
        {
          "name": "",
          "type": "uint256"
        }
      ],
      "payable": false,
      "stateMutability": "view",
      "type": "function"
    },
    {
      "constant": true,
      "inputs": [
        {
          "name": "self",
          "type": "ContentUtils.ContentMapping storage"
        },
        {
          "name": "_id",
          "type": "bytes32"
        }
      ],
      "name": "rewardOf",
      "outputs": [
        {
          "name": "",
          "type": "uint256"
        }
      ],
      "payable": false,
      "stateMutability": "view",
      "type": "function"
    },
    {
      "constant": true,
      "inputs": [
        {
          "name": "self",
          "type": "ContentUtils.ContentMapping storage"
        },
        {
          "name": "_index",
          "type": "uint256"
        }
      ],
      "name": "getKey",
      "outputs": [
        {
          "name": "",
          "type": "bytes32"
        }
      ],
      "payable": false,
      "stateMutability": "view",
      "type": "function"
    },
    {
      "constant": true,
      "inputs": [
        {
          "name": "self",
          "type": "ContentUtils.ContentMapping storage"
        },
        {
          "name": "_name",
          "type": "string"
        }
      ],
      "name": "getContentByName",
      "outputs": [
        {
          "name": "_content",
          "type": "ContentUtils.Content storage"
        },
        {
          "name": "exists",
          "type": "bool"
        }
      ],
      "payable": false,
      "stateMutability": "view",
      "type": "function"
    },
    {
      "constant": true,
      "inputs": [
        {
          "name": "self",
          "type": "ContentUtils.ContentMapping storage"
        },
        {
          "name": "_id",
          "type": "bytes32"
        }
      ],
      "name": "getContentByID",
      "outputs": [
        {
          "name": "_content",
          "type": "ContentUtils.Content storage"
        },
        {
          "name": "exists",
          "type": "bool"
        }
      ],
      "payable": false,
      "stateMutability": "view",
      "type": "function"
    },
    {
      "constant": true,
      "inputs": [
        {
          "name": "self",
          "type": "ContentUtils.ContentMapping storage"
        },
        {
          "name": "_index",
          "type": "uint256"
        }
      ],
      "name": "getContentByKeyIndex",
      "outputs": [
        {
          "name": "_content",
          "type": "ContentUtils.Content storage"
        }
      ],
      "payable": false,
      "stateMutability": "view",
      "type": "function"
    },
    {
      "constant": false,
      "inputs": [
        {
          "name": "self",
          "type": "ContentUtils.ContentMapping storage"
        },
        {
          "name": "_id",
          "type": "bytes32"
        },
        {
          "name": "_creator",
          "type": "address"
        },
        {
          "name": "_brand",
          "type": "address"
        }
      ],
      "name": "fulfill",
      "outputs": [
        {
          "name": "",
          "type": "bool"
        }
      ],
      "payable": false,
      "stateMutability": "nonpayable",
      "type": "function"
    },
    {
      "constant": true,
      "inputs": [
        {
          "name": "self",
          "type": "ContentUtils.ContentMapping storage"
        },
        {
          "name": "_id",
          "type": "bytes32"
        },
        {
          "name": "_creator",
          "type": "address"
        },
        {
          "name": "_brand",
          "type": "address"
        }
      ],
      "name": "isFulfilled",
      "outputs": [
        {
          "name": "",
          "type": "bool"
        }
      ],
      "payable": false,
      "stateMutability": "view",
      "type": "function"
    },
    {
      "constant": true,
      "inputs": [
        {
          "name": "_name",
          "type": "string"
        }
      ],
      "name": "generateContentID",
      "outputs": [
        {
          "name": "",
          "type": "bytes32"
        }
      ],
      "payable": false,
      "stateMutability": "pure",
      "type": "function"
    },
    {
      "constant": true,
      "inputs": [
        {
          "name": "_index",
          "type": "uint256"
        },
        {
          "name": "_size",
          "type": "uint256"
        }
      ],
      "name": "isValidIndex",
      "outputs": [],
      "payable": false,
      "stateMutability": "pure",
      "type": "function"
    }
  ],
  "bytecode": "0x610d29610030600b82828239805160001a6073146000811461002057610022565bfe5b5030600052607381538281f30073000000000000000000000000000000000000000030146080604052600436106100c6576000357c0100000000000000000000000000000000000000000000000000000000900463ffffffff1680630949a43d146100cb5780632bbf3d6b146101095780633da738e91461015657806351d7b89a1461018a5780635dcdb7b11461020f5780635e465cc61461025557806365e8faf6146102e857806377fc45591461031257806379c749cd146103ed57806385e2fffe14610465578063c37a5a5e146104a7575b600080fd5b6100f3600480360381019080803590602001909291908035906020019092919050505061052d565b6040518082815260200191505060405180910390f35b610135600480360381019080803590602001909291908035600019169060200190929190505050610580565b60405180838152602001821515151581526020019250505060405180910390f35b610174600480360381019080803590602001909291905050506105dd565b6040518082815260200191505060405180910390f35b6101ee60048036038101908080359060200190929190803590602001908201803590602001908080601f01602080910402602001604051908101604052809392919081815260200183838082843782019150505050505091929192905050506105ee565b60405180838152602001821515151581526020019250505060405180910390f35b610237600480360381019080803590602001909291908035906020019092919050505061064f565b60405180826000191660001916815260200191505060405180910390f35b81801561026157600080fd5b506102ce600480360381019080803590602001909291908035600019169060200190929190803573ffffffffffffffffffffffffffffffffffffffff169060200190929190803573ffffffffffffffffffffffffffffffffffffffff169060200190929190505050610686565b604051808215151515815260200191505060405180910390f35b61031060048036038101908080359060200190929190803590602001909291905050506106c6565b005b81801561031e57600080fd5b506103d360048036038101908080359060200190929190803590602001908201803590602001908080601f0160208091040260200160405190810160405280939291908181526020018383808284378201915050505050509192919290803590602001908201803590602001908080601f0160208091040260200160405190810160405280939291908181526020018383808284378201915050505050509192919290803590602001909291905050506107ac565b604051808215151515815260200191505060405180910390f35b610447600480360381019080803590602001908201803590602001908080601f0160208091040260200160405190810160405280939291908181526020018383808284378201915050505050509192919290505050610910565b60405180826000191660001916815260200191505060405180910390f35b61049160048036038101908080359060200190929190803560001916906020019092919050505061097c565b6040518082815260200191505060405180910390f35b610513600480360381019080803590602001909291908035600019169060200190929190803573ffffffffffffffffffffffffffffffffffffffff169060200190929190803573ffffffffffffffffffffffffffffffffffffffff1690602001909291905050506109aa565b604051808215151515815260200191505060405180910390f35b60006105408284600101805490506106c6565b826000016000846001018481548110151561055757fe5b906000526020600020015460001916600019168152602001908152602001600020905092915050565b60008083600001600084600019166000191681526020019081526020016000206000600102600019168560000160008660001916600019168152602001908152602001600020600001546000191614819150915091509250929050565b600081600101805490509050919050565b60008060006105fc84610910565b905084600001600082600019166000191681526020019081526020016000206000866000016000846000191660001916815260200190815260200160002060030154141581915092509250509250929050565b60006106628284600101805490506106c6565b826001018281548110151561067357fe5b9060005260206000200154905092915050565b60006106bc838387600001600088600019166000191681526020019081526020016000206004016109ea9092919063ffffffff16565b9050949350505050565b8082106040805190810160405280600d81526020017f4b6579206e6f7420666f756e64000000000000000000000000000000000000008152509015156107a7576040517f08c379a00000000000000000000000000000000000000000000000000000000081526004018080602001828103825283818151815260200191508051906020019080838360005b8381101561076c578082015181840152602081019050610751565b50505050905090810190601f1680156107995780820380516001836020036101000a031916815260200191505b509250505060405180910390fd5b505050565b6000808560020160009054906101000a900460ff161515156107cd57600080fd5b6107d685610910565b90506000600102600019168660000160008360001916600019168152602001908152602001600020600001546000191614151561081257600080fd5b60a0604051908101604052808260001916815260200186815260200185815260200142815260200161084385610b65565b815250866000016000836000191660001916815260200190815260200160002060008201518160000190600019169055602082015181600101908051906020019061088f929190610c44565b5060408201518160020190805190602001906108ac929190610c44565b5060608201518160030155608082015181600401600082015181600001555050905050856001018190806001815401808255809150509060018203906000526020600020016000909192909190915090600019169055506001915050949350505050565b6000816040518082805190602001908083835b6020831015156109485780518252602082019150602081019050602083039250610923565b6001836020036101000a03801982511681845116808217855250505050505090500191505060405180910390209050919050565b6000826000016000836000191660001916815260200190815260200160002060040160000154905092915050565b60006109e083838760000160008860001916600019168152602001908152602001600020600401610b939092919063ffffffff16565b9050949350505050565b60008273ffffffffffffffffffffffffffffffffffffffff163373ffffffffffffffffffffffffffffffffffffffff161480610a5157508173ffffffffffffffffffffffffffffffffffffffff163373ffffffffffffffffffffffffffffffffffffffff16145b1515610a5c57600080fd5b60018460010160003373ffffffffffffffffffffffffffffffffffffffff1673ffffffffffffffffffffffffffffffffffffffff16815260200190815260200160002060006101000a81548160ff0219169083151502179055508360010160008473ffffffffffffffffffffffffffffffffffffffff1673ffffffffffffffffffffffffffffffffffffffff16815260200190815260200160002060009054906101000a900460ff168015610b5c57508360010160008373ffffffffffffffffffffffffffffffffffffffff1673ffffffffffffffffffffffffffffffffffffffff16815260200190815260200160002060009054906101000a900460ff165b90509392505050565b610b6d610cc4565b600082111515610b7c57600080fd5b602060405190810160405280838152509050919050565b60008360010160008473ffffffffffffffffffffffffffffffffffffffff1673ffffffffffffffffffffffffffffffffffffffff16815260200190815260200160002060009054906101000a900460ff168015610c3b57508360010160008373ffffffffffffffffffffffffffffffffffffffff1673ffffffffffffffffffffffffffffffffffffffff16815260200190815260200160002060009054906101000a900460ff165b90509392505050565b828054600181600116156101000203166002900490600052602060002090601f016020900481019282601f10610c8557805160ff1916838001178555610cb3565b82800160010185558215610cb3579182015b82811115610cb2578251825591602001919060010190610c97565b5b509050610cc09190610cd8565b5090565b602060405190810160405280600081525090565b610cfa91905b80821115610cf6576000816000905550600101610cde565b5090565b905600a165627a7a723058200230cba8708bb359f3fddad8d593b40093e8f382e40ef0ec43343a809f4dc7d00029",
  "source": "pragma solidity ^0.4.23;\n\nimport 'openzeppelin-solidity/contracts/math/SafeMath.sol';\n\nlibrary DeliverableUtils {\n\n    struct Deliverable {\n        uint256 reward;\n        mapping(address=>bool) fulfillment;\n    }\n\n    /// @notice msg.sender can be creator or brand and mark their delivery or approval, returns check if completely Fulfilled\n    function fulfill(Deliverable storage self, address _creator, address _brand) internal returns(bool) {\n        require(msg.sender == _creator || msg.sender == _brand);\n        self.fulfillment[msg.sender] = true;\n        return self.fulfillment[_creator] && self.fulfillment[_brand];\n    }\n\n    /// @notice check if deliverable fulfilled completely\n    function isFulfilled(Deliverable storage self, address _creator, address _brand) internal view returns(bool) {\n        return self.fulfillment[_creator] && self.fulfillment[_brand];\n    }\n\n    /// @notice return new deliverable struct if reward greater than 0\n    function newDeliverable(uint256 _reward) internal pure returns(Deliverable _deliverable) {\n        require(_reward > 0);\n        return Deliverable(_reward);\n    }\n}\n\nlibrary ContentUtils {\n    using SafeMath for uint256;\n    using DeliverableUtils for DeliverableUtils.Deliverable;\n\n    struct Content {\n        bytes32 id;\n        string name;\n        string description;\n        uint addedOn;\n        DeliverableUtils.Deliverable deliverable;\n    }\n\n    /// @notice utility for mapping bytes32=>Content. Keys must be unique. It can be updated until it is locked.\n    struct ContentMapping {\n        mapping(bytes32=>Content) data;\n        bytes32[] keys;\n        bool locked;\n    }\n\n    string constant UNIQUE_KEY_ERR = \"Content with ID already exists \";\n    string constant KEY_NOT_FOUND_ERR = \"Key not found\";\n\n    /// @notice put item into mapping\n    function put(ContentMapping storage self, \n        string _name, \n        string _description, \n        uint _reward) public returns (bool) \n    {\n            require(!self.locked);\n\n            bytes32 _id = generateContentID(_name);\n            require(self.data[_id].id == bytes32(0));\n\n            self.data[_id] = Content(_id, _name, _description, block.timestamp, DeliverableUtils.newDeliverable(_reward));\n            self.keys.push(_id);\n            return true;\n    }\n    \n    /// @notice get amount of items in mapping\n    function size(ContentMapping storage self) public view returns (uint) {\n        return self.keys.length;\n    }\n\n    /// @notice return reward of content delivarable\n    function rewardOf(ContentMapping storage self, bytes32 _id) public view returns (uint256) {\n        return self.data[_id].deliverable.reward;\n    }\n\n    function getKey(ContentMapping storage self, uint _index) public view returns (bytes32) {\n        isValidIndex(_index, self.keys.length);\n        return self.keys[_index];\n    }\n\n    /// @notice get content by plain string name\n    function getContentByName(ContentMapping storage self, string _name) public view returns (Content storage _content, bool exists) {\n        bytes32 _hash = generateContentID(_name);\n        return (self.data[_hash], self.data[_hash].addedOn != 0);\n    }\n\n    /// @notice get content by sha3 ID hash\n    function getContentByID(ContentMapping storage self, bytes32 _id) public view returns (Content storage _content, bool exists) {\n        return (self.data[_id], self.data[_id].id == bytes32(0));\n    }\n\n    /// @notice get content by _index into key array \n    function getContentByKeyIndex(ContentMapping storage self, uint _index) public view returns (Content storage _content) {\n        isValidIndex(_index, self.keys.length);\n        return (self.data[self.keys[_index]]);\n    }\n\n    /// @notice wrapper around internal deliverable method\n    function fulfill(ContentMapping storage self, bytes32 _id, address _creator, address _brand) public returns(bool) {\n        return self.data[_id].deliverable.fulfill(_creator, _brand);\n    }\n\n    /// @notice wrapper around internal deliverable method\n    function isFulfilled(ContentMapping storage self, bytes32 _id, address _creator, address _brand) public view returns(bool) {\n        return self.data[_id].deliverable.isFulfilled(_creator, _brand);\n    }\n\n    /// @notice get sha256 hash of name for content ID\n    function generateContentID(string _name) public pure returns (bytes32) {\n        return keccak256(_name);\n    }\n\n    /// @notice index not out of bounds\n    function isValidIndex(uint _index, uint _size) public pure {\n        require(_index < _size, KEY_NOT_FOUND_ERR);\n    }\n}\n\n",
  "sourcePath": "/Users/kc1116/Desktop/credit-coin/credit-coin-contracts/contracts/ContentUtils.sol",
  "compiler": {
    "name": "solc",
    "version": "0.4.23+commit.124ca40d.Emscripten.clang"
  },
  "schemaVersion": "2.0.0",
  "updatedAt": "2018-06-03T07:16:20.560Z"
}