{
  "contractName": "Escrow",
  "abi": [
    {
      "constant": true,
      "inputs": [
        {
          "name": "",
          "type": "bytes32"
        }
      ],
      "name": "claimableRewards",
      "outputs": [
        {
          "name": "",
          "type": "uint256"
        }
      ],
      "payable": false,
      "stateMutability": "view",
      "type": "function"
    },
    {
      "constant": true,
      "inputs": [],
      "name": "content",
      "outputs": [
        {
          "name": "locked",
          "type": "bool"
        }
      ],
      "payable": false,
      "stateMutability": "view",
      "type": "function"
    },
    {
      "constant": true,
      "inputs": [],
      "name": "claimable",
      "outputs": [
        {
          "name": "",
          "type": "uint256"
        }
      ],
      "payable": false,
      "stateMutability": "view",
      "type": "function"
    },
    {
      "constant": true,
      "inputs": [],
      "name": "currentBalance",
      "outputs": [
        {
          "name": "",
          "type": "uint256"
        }
      ],
      "payable": false,
      "stateMutability": "view",
      "type": "function"
    },
    {
      "constant": false,
      "inputs": [
        {
          "name": "_id",
          "type": "bytes32"
        }
      ],
      "name": "getClaimableRewards",
      "outputs": [
        {
          "name": "",
          "type": "uint256"
        }
      ],
      "payable": false,
      "stateMutability": "nonpayable",
      "type": "function"
    },
    {
      "constant": true,
      "inputs": [
        {
          "name": "_name",
          "type": "string"
        }
      ],
      "name": "getContentByName",
      "outputs": [
        {
          "name": "name",
          "type": "string"
        },
        {
          "name": "description",
          "type": "string"
        },
        {
          "name": "reward",
          "type": "uint256"
        },
        {
          "name": "addedOn",
          "type": "uint256"
        }
      ],
      "payable": false,
      "stateMutability": "view",
      "type": "function"
    },
    {
      "constant": true,
      "inputs": [
        {
          "name": "_name",
          "type": "string"
        }
      ],
      "name": "currentFulfillment",
      "outputs": [
        {
          "name": "fulfillment",
          "type": "bool"
        }
      ],
      "payable": false,
      "stateMutability": "view",
      "type": "function"
    }
  ],
  "bytecode": "0x608060405230600360006101000a81548173ffffffffffffffffffffffffffffffffffffffff021916908373ffffffffffffffffffffffffffffffffffffffff1602179055506000600455600060055534801561005b57600080fd5b506108878061006b6000396000f300608060405260043610610083576000357c0100000000000000000000000000000000000000000000000000000000900463ffffffff168063059270061461008857806324e8b3ec146100cd578063418c7de1146101125780638a4d5a6714610193578063af38d757146101c2578063c3e0bbad146101ed578063ce845d1d14610349575b600080fd5b34801561009457600080fd5b506100b76004803603810190808035600019169060200190929190505050610374565b6040518082815260200191505060405180910390f35b3480156100d957600080fd5b506100fc600480360381019080803560001916906020019092919050505061038c565b6040518082815260200191505060405180910390f35b34801561011e57600080fd5b50610179600480360381019080803590602001908201803590602001908080601f01602080910402602001604051908101604052809392919081815260200183838082843782019150505050505091929192905050506103b1565b604051808215151515815260200191505060405180910390f35b34801561019f57600080fd5b506101a8610554565b604051808215151515815260200191505060405180910390f35b3480156101ce57600080fd5b506101d761056d565b6040518082815260200191505060405180910390f35b3480156101f957600080fd5b50610254600480360381019080803590602001908201803590602001908080601f0160208091040260200160405190810160405280939291908181526020018383808284378201915050505050509192919290505050610573565b604051808060200180602001858152602001848152602001838103835287818151815260200191508051906020019080838360005b838110156102a4578082015181840152602081019050610289565b50505050905090810190601f1680156102d15780820380516001836020036101000a031916815260200191505b50838103825286818151815260200191508051906020019080838360005b8381101561030a5780820151818401526020810190506102ef565b50505050905090810190601f1680156103375780820380516001836020036101000a031916815260200191505b50965050505050505060405180910390f35b34801561035557600080fd5b5061035e610855565b6040518082815260200191505060405180910390f35b60066020528060005260406000206000915090505481565b6000600660008360001916600019168152602001908152602001600020549050919050565b60008060008073__ContentUtils__________________________6351d7b89a9091866040518363ffffffff167c01000000000000000000000000000000000000000000000000000000000281526004018083815260200180602001828103825283818151815260200191508051906020019080838360005b8381101561044557808201518184015260208101905061042a565b50505050905090810190601f1680156104725780820380516001836020036101000a031916815260200191505b50935050505060006040518083038186803b15801561049057600080fd5b505af41580156104a4573d6000803e3d6000fd5b505050506040513d6000823e3d601f19601f8201168201806040525060408110156104ce57600080fd5b81019080805190602001909291908051906020019092919050505091509150801561054c578160040160010160003373ffffffffffffffffffffffffffffffffffffffff1673ffffffffffffffffffffffffffffffffffffffff16815260200190815260200160002060009054906101000a900460ff16925061054d565b5b5050919050565b60008060020160009054906101000a900460ff16905081565b60045481565b606080600080600080600073__ContentUtils__________________________6351d7b89a9091896040518363ffffffff167c01000000000000000000000000000000000000000000000000000000000281526004018083815260200180602001828103825283818151815260200191508051906020019080838360005b8381101561060c5780820151818401526020810190506105f1565b50505050905090810190601f1680156106395780820380516001836020036101000a031916815260200191505b50935050505060006040518083038186803b15801561065757600080fd5b505af415801561066b573d6000803e3d6000fd5b505050506040513d6000823e3d601f19601f82011682018060405250604081101561069557600080fd5b81019080805190602001909291908051906020019092919050505091509150801561081457816001018260020183600401600001548460030154838054600181600116156101000203166002900480601f0160208091040260200160405190810160405280929190818152602001828054600181600116156101000203166002900480156107645780601f1061073957610100808354040283529160200191610764565b820191906000526020600020905b81548152906001019060200180831161074757829003601f168201915b50505050509350828054600181600116156101000203166002900480601f0160208091040260200160405190810160405280929190818152602001828054600181600116156101000203166002900480156108005780601f106107d557610100808354040283529160200191610800565b820191906000526020600020905b8154815290600101906020018083116107e357829003601f168201915b50505050509250955095509550955061084c565b600080602060405190810160405280600081525091906020604051908101604052806000815250919081915080905095509550955095505b50509193509193565b600554815600a165627a7a72305820d5c3840dcfc0ee98d516973a695b3d0715ba4fd7384cabfc103cbecaf0bb896f0029",
  "source": "pragma solidity ^0.4.23;\n\nimport 'openzeppelin-solidity/contracts/math/SafeMath.sol';\nimport './ContentUtils.sol';\n\ncontract Escrow {\n    using SafeMath for uint256;\n    using ContentUtils for ContentUtils.ContentMapping;\n\n    ContentUtils.ContentMapping public content;\n    address escrowAddr = address(this);\n\n    uint256 public claimable = 0; \n    uint256 public currentBalance = 0; \n    mapping(bytes32 => uint256) public claimableRewards;\n\n    /// @notice valid reward and user has enough funds\n    modifier validReward(uint256 _reward) {\n        require(_reward > 0 && _depositEscrow(_reward));\n        _;\n    }\n\n    /// @notice complete deliverable by making reward amount claimable\n    function completeDeliverable(bytes32 _id, address _creator, address _brand) internal returns(bool) {\n        require(content.isFulfilled(_id, _creator, _brand));\n        content.completeDeliverable(_id);\n        return _approveEscrow(_id, content.rewardOf(_id));       \n    }\n\n    /// @notice update current balance, if proper token amount approved\n    function _depositEscrow(uint256 _amount) internal returns(bool) {\n        currentBalance = currentBalance.add(_amount);\n        return true;\n    }\n\n    /// @notice approve reward amount for transfer from escrow contract to creator\n    function _approveEscrow(bytes32 _id, uint256 _amount) internal returns(bool) {\n        claimable = claimable.add(_amount);\n        claimableRewards[_id] = _amount;\n        return true;\n    }\n\n    function getClaimableRewards(bytes32 _id) public returns(uint256) {\n        return claimableRewards[_id];\n    }\n\n    function getContentByName(string _name) public view returns(\n        string name,\n        string description,\n        uint reward,\n        uint addedOn) \n    {\n        var (_content, exist) = content.getContentByName(_name);\n        if (exist) {\n            return (_content.name, _content.description, _content.deliverable.reward, _content.addedOn);\n        } else {\n            return (\"\", \"\", 0, 0);\n        }\n    }\n\n    function currentFulfillment(string _name) public view returns(bool fulfillment) {\n        var (_content, exist) = content.getContentByName(_name);\n        if (exist) {\n            return _content.deliverable.fulfillment[msg.sender];\n        } else {\n            false;\n        }\n    }\n}\n",
  "sourcePath": "/Users/kc1116/Desktop/credit-coin/credit-coin-contracts/contracts/Escrow.sol",
  "compiler": {
    "name": "solc",
    "version": "0.4.24+commit.e67f0147.Emscripten.clang"
  },
  "schemaVersion": "2.0.0",
  "updatedAt": "2018-06-25T04:59:24.887Z"
}