{
  "contractName": "Escrow",
  "abi": [
    {
      "constant": true,
      "inputs": [],
      "name": "content",
      "outputs": [
        {
          "name": "locked",
          "type": "bool"
        }
      ],
      "payable": false,
      "stateMutability": "view",
      "type": "function"
    },
    {
      "constant": true,
      "inputs": [
        {
          "name": "_name",
          "type": "string"
        }
      ],
      "name": "getContentByName",
      "outputs": [
        {
          "name": "name",
          "type": "string"
        },
        {
          "name": "description",
          "type": "string"
        },
        {
          "name": "reward",
          "type": "uint256"
        },
        {
          "name": "addedOn",
          "type": "uint256"
        }
      ],
      "payable": false,
      "stateMutability": "view",
      "type": "function"
    },
    {
      "constant": true,
      "inputs": [
        {
          "name": "_name",
          "type": "string"
        }
      ],
      "name": "currentFulfillment",
      "outputs": [
        {
          "name": "fulfillment",
          "type": "bool"
        }
      ],
      "payable": false,
      "stateMutability": "view",
      "type": "function"
    }
  ],
  "bytecode": "0x6080604052600060035534801561001557600080fd5b50610732806100256000396000f300608060405260043610610057576000357c0100000000000000000000000000000000000000000000000000000000900463ffffffff168063418c7de11461005c5780638a4d5a67146100dd578063c3e0bbad1461010c575b600080fd5b34801561006857600080fd5b506100c3600480360381019080803590602001908201803590602001908080601f0160208091040260200160405190810160405280939291908181526020018383808284378201915050505050509192919290505050610268565b604051808215151515815260200191505060405180910390f35b3480156100e957600080fd5b506100f261040b565b604051808215151515815260200191505060405180910390f35b34801561011857600080fd5b50610173600480360381019080803590602001908201803590602001908080601f0160208091040260200160405190810160405280939291908181526020018383808284378201915050505050509192919290505050610424565b604051808060200180602001858152602001848152602001838103835287818151815260200191508051906020019080838360005b838110156101c35780820151818401526020810190506101a8565b50505050905090810190601f1680156101f05780820380516001836020036101000a031916815260200191505b50838103825286818151815260200191508051906020019080838360005b8381101561022957808201518184015260208101905061020e565b50505050905090810190601f1680156102565780820380516001836020036101000a031916815260200191505b50965050505050505060405180910390f35b60008060008073__ContentUtils__________________________6351d7b89a9091866040518363ffffffff167c01000000000000000000000000000000000000000000000000000000000281526004018083815260200180602001828103825283818151815260200191508051906020019080838360005b838110156102fc5780820151818401526020810190506102e1565b50505050905090810190601f1680156103295780820380516001836020036101000a031916815260200191505b50935050505060006040518083038186803b15801561034757600080fd5b505af415801561035b573d6000803e3d6000fd5b505050506040513d6000823e3d601f19601f82011682018060405250604081101561038557600080fd5b810190808051906020019092919080519060200190929190505050915091508015610403578160040160010160003373ffffffffffffffffffffffffffffffffffffffff1673ffffffffffffffffffffffffffffffffffffffff16815260200190815260200160002060009054906101000a900460ff169250610404565b5b5050919050565b60008060020160009054906101000a900460ff16905081565b606080600080600080600073__ContentUtils__________________________6351d7b89a9091896040518363ffffffff167c01000000000000000000000000000000000000000000000000000000000281526004018083815260200180602001828103825283818151815260200191508051906020019080838360005b838110156104bd5780820151818401526020810190506104a2565b50505050905090810190601f1680156104ea5780820380516001836020036101000a031916815260200191505b50935050505060006040518083038186803b15801561050857600080fd5b505af415801561051c573d6000803e3d6000fd5b505050506040513d6000823e3d601f19601f82011682018060405250604081101561054657600080fd5b8101908080519060200190929190805190602001909291905050509150915080156106c557816001018260020183600401600001548460030154838054600181600116156101000203166002900480601f0160208091040260200160405190810160405280929190818152602001828054600181600116156101000203166002900480156106155780601f106105ea57610100808354040283529160200191610615565b820191906000526020600020905b8154815290600101906020018083116105f857829003601f168201915b50505050509350828054600181600116156101000203166002900480601f0160208091040260200160405190810160405280929190818152602001828054600181600116156101000203166002900480156106b15780601f10610686576101008083540402835291602001916106b1565b820191906000526020600020905b81548152906001019060200180831161069457829003601f168201915b5050505050925095509550955095506106fd565b600080602060405190810160405280600081525091906020604051908101604052806000815250919081915080905095509550955095505b505091935091935600a165627a7a723058207c2ed9114f8667a865df0ab9b497adebca994ae10fb791b06cdeaea5f118d67d0029",
  "source": "pragma solidity ^0.4.23;\n\nimport 'openzeppelin-solidity/contracts/math/SafeMath.sol';\nimport './ContentUtils.sol';\n\ncontract Escrow {\n    using SafeMath for uint256;\n    using ContentUtils for ContentUtils.ContentMapping;\n\n    ContentUtils.ContentMapping public content;\n    uint256 escrow = 0;\n\n    /// @notice value sent with transaction covers reward\n    modifier validReward(uint256 _reward) {\n        require(msg.value > 0 && _reward > 0 && msg.value >= _reward);\n        escrow.add(msg.value);\n        _;\n    }\n\n    /// @notice complete deliverable by making reward amount claimable\n    function completeDeliverable(bytes32 _id) internal returns(bool) {\n        uint256 _reward = content.rewardOf(_id);\n        require(_reward >= escrow);\n        return withdraw(_reward);       \n    }\n\n    /// @notice withdraw an amount;\n    function withdraw(uint256 _amount) internal returns(bool) {\n        msg.sender.transfer(_amount);\n        escrow.sub(_amount);\n        return true;\n    }\n\n    function getContentByName(string _name) public view returns(\n        string name,\n        string description,\n        uint reward,\n        uint addedOn) \n    {\n        var (_content, exist) = content.getContentByName(_name);\n        if (exist) {\n            return (_content.name, _content.description, _content.deliverable.reward, _content.addedOn);\n        } else {\n            return (\"\", \"\", 0, 0);\n        }\n    }\n\n    function currentFulfillment(string _name) public view returns(bool fulfillment) {\n        var (_content, exist) = content.getContentByName(_name);\n        if (exist) {\n            return _content.deliverable.fulfillment[msg.sender];\n        } else {\n            false;\n        }\n    }\n}\n",
  "sourcePath": "/Users/kc1116/Desktop/credit-coin/credit-coin-contracts/contracts/Escrow.sol",
  "compiler": {
    "name": "solc",
    "version": "0.4.23+commit.124ca40d.Emscripten.clang"
  },
  "schemaVersion": "2.0.0",
  "updatedAt": "2018-06-03T07:16:20.298Z"
}