{
  "contractName": "Escrow",
  "abi": [
    {
      "constant": true,
      "inputs": [],
      "name": "content",
      "outputs": [
        {
          "name": "locked",
          "type": "bool"
        }
      ],
      "payable": false,
      "stateMutability": "view",
      "type": "function"
    },
    {
      "constant": true,
      "inputs": [
        {
          "name": "",
          "type": "bytes32"
        }
      ],
      "name": "payouts",
      "outputs": [
        {
          "name": "id",
          "type": "bytes32"
        },
        {
          "name": "client",
          "type": "string"
        },
        {
          "name": "contentID",
          "type": "string"
        },
        {
          "name": "isPayed",
          "type": "bool"
        }
      ],
      "payable": false,
      "stateMutability": "view",
      "type": "function"
    },
    {
      "constant": true,
      "inputs": [],
      "name": "budget",
      "outputs": [
        {
          "name": "",
          "type": "uint256"
        }
      ],
      "payable": false,
      "stateMutability": "view",
      "type": "function"
    },
    {
      "constant": false,
      "inputs": [
        {
          "name": "_id",
          "type": "bytes32"
        }
      ],
      "name": "payout",
      "outputs": [
        {
          "name": "",
          "type": "bool"
        }
      ],
      "payable": false,
      "stateMutability": "nonpayable",
      "type": "function"
    },
    {
      "constant": true,
      "inputs": [
        {
          "name": "_contentID",
          "type": "bytes32"
        }
      ],
      "name": "getContentByID",
      "outputs": [
        {
          "name": "id",
          "type": "bytes32"
        },
        {
          "name": "addedOn",
          "type": "uint256"
        },
        {
          "name": "name",
          "type": "string"
        },
        {
          "name": "description",
          "type": "string"
        },
        {
          "name": "_type",
          "type": "string"
        },
        {
          "name": "contentID",
          "type": "string"
        },
        {
          "name": "userID",
          "type": "string"
        },
        {
          "name": "approved",
          "type": "bool"
        },
        {
          "name": "requestEdit",
          "type": "bool"
        },
        {
          "name": "requestResubmission",
          "type": "bool"
        }
      ],
      "payable": false,
      "stateMutability": "view",
      "type": "function"
    }
  ],
  "bytecode": "0x608060405234801561001057600080fd5b50610c1d806100206000396000f30060806040526004361061006d576000357c0100000000000000000000000000000000000000000000000000000000900463ffffffff1680638a4d5a671461007257806390de82ef146100a1578063aeddb90514610332578063cfefb3d514610462578063ed01bf29146104ab575b600080fd5b34801561007e57600080fd5b506100876104d6565b604051808215151515815260200191505060405180910390f35b3480156100ad57600080fd5b506100d060048036038101908080356000191690602001909291905050506104ef565b604051808b600019166000191681526020018a8152602001806020018060200180602001806020018060200189151515158152602001881515151581526020018715151515815260200186810386528e818151815260200191508051906020019080838360005b83811015610152578082015181840152602081019050610137565b50505050905090810190601f16801561017f5780820380516001836020036101000a031916815260200191505b5086810385528d818151815260200191508051906020019080838360005b838110156101b857808201518184015260208101905061019d565b50505050905090810190601f1680156101e55780820380516001836020036101000a031916815260200191505b5086810384528c818151815260200191508051906020019080838360005b8381101561021e578082015181840152602081019050610203565b50505050905090810190601f16801561024b5780820380516001836020036101000a031916815260200191505b5086810383528b818151815260200191508051906020019080838360005b83811015610284578082015181840152602081019050610269565b50505050905090810190601f1680156102b15780820380516001836020036101000a031916815260200191505b5086810382528a818151815260200191508051906020019080838360005b838110156102ea5780820151818401526020810190506102cf565b50505050905090810190601f1680156103175780820380516001836020036101000a031916815260200191505b509f5050505050505050505050505050505060405180910390f35b34801561033e57600080fd5b5061036160048036038101908080356000191690602001909291905050506109df565b604051808560001916600019168152602001806020018060200184151515158152602001838103835286818151815260200191508051906020019080838360005b838110156103bd5780820151818401526020810190506103a2565b50505050905090810190601f1680156103ea5780820380516001836020036101000a031916815260200191505b50838103825285818151815260200191508051906020019080838360005b83811015610423578082015181840152602081019050610408565b50505050905090810190601f1680156104505780820380516001836020036101000a031916815260200191505b50965050505050505060405180910390f35b34801561046e57600080fd5b506104916004803603810190808035600019169060200190929190505050610b4c565b604051808215151515815260200191505060405180910390f35b3480156104b757600080fd5b506104c0610b8e565b6040518082815260200191505060405180910390f35b60008060020160009054906101000a900460ff16905081565b60008060608060608060606000806000610507610b94565b600073__ContentUtils__________________________632bbf3d6b90918e6040518363ffffffff167c01000000000000000000000000000000000000000000000000000000000281526004018083815260200182600019166000191681526020019250505060006040518083038186803b15801561058557600080fd5b505af4158015610599573d6000803e3d6000fd5b505050506040513d6000823e3d601f19601f8201168201806040525060208110156105c357600080fd5b8101908080519060200190929190505050610140604051908101604052908160008201546000191660001916815260200160018201548152602001600282018054600181600116156101000203166002900480601f0160208091040260200160405190810160405280929190818152602001828054600181600116156101000203166002900480156106965780601f1061066b57610100808354040283529160200191610696565b820191906000526020600020905b81548152906001019060200180831161067957829003601f168201915b50505050508152602001600382018054600181600116156101000203166002900480601f0160208091040260200160405190810160405280929190818152602001828054600181600116156101000203166002900480156107385780601f1061070d57610100808354040283529160200191610738565b820191906000526020600020905b81548152906001019060200180831161071b57829003601f168201915b50505050508152602001600482018054600181600116156101000203166002900480601f0160208091040260200160405190810160405280929190818152602001828054600181600116156101000203166002900480156107da5780601f106107af576101008083540402835291602001916107da565b820191906000526020600020905b8154815290600101906020018083116107bd57829003601f168201915b50505050508152602001600582018054600181600116156101000203166002900480601f01602080910402602001604051908101604052809291908181526020018280546001816001161561010002031660029004801561087c5780601f106108515761010080835404028352916020019161087c565b820191906000526020600020905b81548152906001019060200180831161085f57829003601f168201915b50505050508152602001600682018054600181600116156101000203166002900480601f01602080910402602001604051908101604052809291908181526020018280546001816001161561010002031660029004801561091e5780601f106108f35761010080835404028352916020019161091e565b820191906000526020600020905b81548152906001019060200180831161090157829003601f168201915b505050505081526020016007820160009054906101000a900460ff161515151581526020016007820160019054906101000a900460ff161515151581526020016007820160029054906101000a900460ff1615151515815250509050806000015181602001518260400151836060015184608001518560a001518660c001518760e001518861010001518961012001518797508696508595508494508393509a509a509a509a509a509a509a509a509a509a50509193959799509193959799565b6004602052806000526040600020600091509050806000015490806001018054600181600116156101000203166002900480601f016020809104026020016040519081016040528092919081815260200182805460018160011615610100020316600290048015610a915780601f10610a6657610100808354040283529160200191610a91565b820191906000526020600020905b815481529060010190602001808311610a7457829003601f168201915b505050505090806002018054600181600116156101000203166002900480601f016020809104026020016040519081016040528092919081815260200182805460018160011615610100020316600290048015610b2f5780601f10610b0457610100808354040283529160200191610b2f565b820191906000526020600020905b815481529060010190602001808311610b1257829003601f168201915b5050505050908060030160009054906101000a900460ff16905084565b6000600160046000846000191660001916815260200190815260200160002060030160006101000a81548160ff02191690831515021790555060019050919050565b60035481565b610140604051908101604052806000801916815260200160008152602001606081526020016060815260200160608152602001606081526020016060815260200160001515815260200160001515815260200160001515815250905600a165627a7a7230582003db7a1004a11b7e26b48777c7e7547ba7a4f8f6893c35293477897ee8a96ab60029",
  "source": "pragma solidity ^0.4.23;\n\nimport 'openzeppelin-solidity/contracts/math/SafeMath.sol';\nimport './ContentUtils.sol';\n\ncontract Escrow {\n    using SafeMath for uint256;\n    using ContentUtils for ContentUtils.ContentMapping;\n\n    ContentUtils.ContentMapping public content;\n\n    struct Payout {\n        bytes32 id;\n        string client;\n        string contentID;\n        bool isPayed;\n    }\n\n    uint256 public budget;  \n    mapping (bytes32=>Payout) public payouts;\n     \n    /// @notice valid reward and user has enough funds\n    // modifier validReward(uint256 _reward) {\n    //     require(_reward > 0 && _depositEscrow(_reward));\n    //     _;\n    // }\n\n    function newPayout(bytes32 _id, string _client, string _contentID) internal returns(bool) {\n        payouts[_id] = Payout(_id, _client, _contentID, false);\n        return true;\n    }\n\n    function payout(bytes32 _id) public returns(bool) {\n        payouts[_id].isPayed = true;\n        return true;\n    }\n\n    /// @notice update current balance, if proper token amount approved\n    // function _depositEscrow(uint256 _amount) internal returns(bool) {\n    //     currentBalance = currentBalance.add(_amount);\n    //     return true;\n    // }\n\n    /// @notice approve reward amount for transfer from escrow contract to creator\n    // function _approveEscrow(bytes32 _id, uint256 _amount) internal returns(bool) {\n    //     claimable = claimable.add(_amount);\n    //     claimableRewards[_id] = _amount;\n    //     return true;\n    // }\n\n    // PAYOUT\n    \n    function getContentByID(bytes32 _contentID) public view returns(\n        bytes32 id,\n        uint addedOn,\n        string name,\n        string description,\n        string _type,\n        string contentID,\n        string userID,\n        bool approved, \n        bool requestEdit,\n        bool requestResubmission) \n    {\n        ContentUtils.Content memory _content = content.getContentByID(_contentID);\n        return (\n            _content.id,\n            _content.addedOn,\n            _content.name,\n            _content.description,\n            _content._type,\n            _content.contentID,\n            _content.userID,\n            _content.approved, \n            _content.requestEdit,\n            _content.requestResubmission\n        );\n    }\n\n    // function currentFulfillment(string _name) public view returns(bool fulfillment) {\n    //     var (_content, exist) = content.getContentByName(_name);\n    //     if (exist) {\n    //         return _content.deliverable.fulfillment[msg.sender];\n    //     } else {\n    //         false;\n    //     }\n    // }\n}\n",
  "sourcePath": "/Users/kc1116/Desktop/credit-coin/credit-coin-contracts/contracts/Escrow.sol",
  "compiler": {
    "name": "solc",
    "version": "0.4.24+commit.e67f0147.Emscripten.clang"
  },
  "schemaVersion": "2.0.0",
  "updatedAt": "2018-07-22T22:27:05.289Z"
}